{
  "abi": [
    {
      "inputs": [
        {
          "internalType": "string",
          "name": "_name",
          "type": "string"
        },
        {
          "internalType": "string",
          "name": "_symbol",
          "type": "string"
        }
      ],
      "stateMutability": "nonpayable",
      "type": "constructor"
    },
    {
      "inputs": [],
      "name": "AccessControlBadConfirmation",
      "type": "error"
    },
    {
      "inputs": [
        {
          "internalType": "address",
          "name": "account",
          "type": "address"
        },
        {
          "internalType": "bytes32",
          "name": "neededRole",
          "type": "bytes32"
        }
      ],
      "name": "AccessControlUnauthorizedAccount",
      "type": "error"
    },
    {
      "inputs": [],
      "name": "ECDSAInvalidSignature",
      "type": "error"
    },
    {
      "inputs": [
        {
          "internalType": "uint256",
          "name": "length",
          "type": "uint256"
        }
      ],
      "name": "ECDSAInvalidSignatureLength",
      "type": "error"
    },
    {
      "inputs": [
        {
          "internalType": "bytes32",
          "name": "s",
          "type": "bytes32"
        }
      ],
      "name": "ECDSAInvalidSignatureS",
      "type": "error"
    },
    {
      "inputs": [
        {
          "internalType": "address",
          "name": "spender",
          "type": "address"
        },
        {
          "internalType": "uint256",
          "name": "allowance",
          "type": "uint256"
        },
        {
          "internalType": "uint256",
          "name": "needed",
          "type": "uint256"
        }
      ],
      "name": "ERC20InsufficientAllowance",
      "type": "error"
    },
    {
      "inputs": [
        {
          "internalType": "address",
          "name": "sender",
          "type": "address"
        },
        {
          "internalType": "uint256",
          "name": "balance",
          "type": "uint256"
        },
        {
          "internalType": "uint256",
          "name": "needed",
          "type": "uint256"
        }
      ],
      "name": "ERC20InsufficientBalance",
      "type": "error"
    },
    {
      "inputs": [
        {
          "internalType": "address",
          "name": "approver",
          "type": "address"
        }
      ],
      "name": "ERC20InvalidApprover",
      "type": "error"
    },
    {
      "inputs": [
        {
          "internalType": "address",
          "name": "receiver",
          "type": "address"
        }
      ],
      "name": "ERC20InvalidReceiver",
      "type": "error"
    },
    {
      "inputs": [
        {
          "internalType": "address",
          "name": "sender",
          "type": "address"
        }
      ],
      "name": "ERC20InvalidSender",
      "type": "error"
    },
    {
      "inputs": [
        {
          "internalType": "address",
          "name": "spender",
          "type": "address"
        }
      ],
      "name": "ERC20InvalidSpender",
      "type": "error"
    },
    {
      "inputs": [
        {
          "internalType": "uint256",
          "name": "deadline",
          "type": "uint256"
        }
      ],
      "name": "ERC2612ExpiredSignature",
      "type": "error"
    },
    {
      "inputs": [
        {
          "internalType": "address",
          "name": "signer",
          "type": "address"
        },
        {
          "internalType": "address",
          "name": "owner",
          "type": "address"
        }
      ],
      "name": "ERC2612InvalidSigner",
      "type": "error"
    },
    {
      "inputs": [
        {
          "internalType": "address",
          "name": "account",
          "type": "address"
        },
        {
          "internalType": "uint256",
          "name": "currentNonce",
          "type": "uint256"
        }
      ],
      "name": "InvalidAccountNonce",
      "type": "error"
    },
    {
      "inputs": [],
      "name": "InvalidShortString",
      "type": "error"
    },
    {
      "inputs": [
        {
          "internalType": "string",
          "name": "str",
          "type": "string"
        }
      ],
      "name": "StringTooLong",
      "type": "error"
    },
    {
      "anonymous": false,
      "inputs": [
        {
          "indexed": true,
          "internalType": "address",
          "name": "owner",
          "type": "address"
        },
        {
          "indexed": true,
          "internalType": "address",
          "name": "spender",
          "type": "address"
        },
        {
          "indexed": false,
          "internalType": "uint256",
          "name": "value",
          "type": "uint256"
        }
      ],
      "name": "Approval",
      "type": "event"
    },
    {
      "anonymous": false,
      "inputs": [],
      "name": "EIP712DomainChanged",
      "type": "event"
    },
    {
      "anonymous": false,
      "inputs": [
        {
          "indexed": true,
          "internalType": "bytes32",
          "name": "role",
          "type": "bytes32"
        },
        {
          "indexed": true,
          "internalType": "bytes32",
          "name": "previousAdminRole",
          "type": "bytes32"
        },
        {
          "indexed": true,
          "internalType": "bytes32",
          "name": "newAdminRole",
          "type": "bytes32"
        }
      ],
      "name": "RoleAdminChanged",
      "type": "event"
    },
    {
      "anonymous": false,
      "inputs": [
        {
          "indexed": true,
          "internalType": "bytes32",
          "name": "role",
          "type": "bytes32"
        },
        {
          "indexed": true,
          "internalType": "address",
          "name": "account",
          "type": "address"
        },
        {
          "indexed": true,
          "internalType": "address",
          "name": "sender",
          "type": "address"
        }
      ],
      "name": "RoleGranted",
      "type": "event"
    },
    {
      "anonymous": false,
      "inputs": [
        {
          "indexed": true,
          "internalType": "bytes32",
          "name": "role",
          "type": "bytes32"
        },
        {
          "indexed": true,
          "internalType": "address",
          "name": "account",
          "type": "address"
        },
        {
          "indexed": true,
          "internalType": "address",
          "name": "sender",
          "type": "address"
        }
      ],
      "name": "RoleRevoked",
      "type": "event"
    },
    {
      "anonymous": false,
      "inputs": [
        {
          "indexed": true,
          "internalType": "address",
          "name": "from",
          "type": "address"
        },
        {
          "indexed": true,
          "internalType": "address",
          "name": "to",
          "type": "address"
        },
        {
          "indexed": false,
          "internalType": "uint256",
          "name": "value",
          "type": "uint256"
        }
      ],
      "name": "Transfer",
      "type": "event"
    },
    {
      "inputs": [],
      "name": "DEFAULT_ADMIN_ROLE",
      "outputs": [
        {
          "internalType": "bytes32",
          "name": "",
          "type": "bytes32"
        }
      ],
      "stateMutability": "view",
      "type": "function"
    },
    {
      "inputs": [],
      "name": "DOMAIN_SEPARATOR",
      "outputs": [
        {
          "internalType": "bytes32",
          "name": "",
          "type": "bytes32"
        }
      ],
      "stateMutability": "view",
      "type": "function"
    },
    {
      "inputs": [
        {
          "internalType": "address",
          "name": "owner",
          "type": "address"
        },
        {
          "internalType": "address",
          "name": "spender",
          "type": "address"
        }
      ],
      "name": "allowance",
      "outputs": [
        {
          "internalType": "uint256",
          "name": "",
          "type": "uint256"
        }
      ],
      "stateMutability": "view",
      "type": "function"
    },
    {
      "inputs": [
        {
          "internalType": "address",
          "name": "spender",
          "type": "address"
        },
        {
          "internalType": "uint256",
          "name": "value",
          "type": "uint256"
        }
      ],
      "name": "approve",
      "outputs": [
        {
          "internalType": "bool",
          "name": "",
          "type": "bool"
        }
      ],
      "stateMutability": "nonpayable",
      "type": "function"
    },
    {
      "inputs": [
        {
          "internalType": "address",
          "name": "account",
          "type": "address"
        }
      ],
      "name": "balanceOf",
      "outputs": [
        {
          "internalType": "uint256",
          "name": "",
          "type": "uint256"
        }
      ],
      "stateMutability": "view",
      "type": "function"
    },
    {
      "inputs": [
        {
          "internalType": "address",
          "name": "account",
          "type": "address"
        },
        {
          "internalType": "uint256",
          "name": "amount",
          "type": "uint256"
        }
      ],
      "name": "burn",
      "outputs": [
        {
          "internalType": "bool",
          "name": "",
          "type": "bool"
        }
      ],
      "stateMutability": "nonpayable",
      "type": "function"
    },
    {
      "inputs": [],
      "name": "decimals",
      "outputs": [
        {
          "internalType": "uint8",
          "name": "",
          "type": "uint8"
        }
      ],
      "stateMutability": "view",
      "type": "function"
    },
    {
      "inputs": [],
      "name": "eip712Domain",
      "outputs": [
        {
          "internalType": "bytes1",
          "name": "fields",
          "type": "bytes1"
        },
        {
          "internalType": "string",
          "name": "name",
          "type": "string"
        },
        {
          "internalType": "string",
          "name": "version",
          "type": "string"
        },
        {
          "internalType": "uint256",
          "name": "chainId",
          "type": "uint256"
        },
        {
          "internalType": "address",
          "name": "verifyingContract",
          "type": "address"
        },
        {
          "internalType": "bytes32",
          "name": "salt",
          "type": "bytes32"
        },
        {
          "internalType": "uint256[]",
          "name": "extensions",
          "type": "uint256[]"
        }
      ],
      "stateMutability": "view",
      "type": "function"
    },
    {
      "inputs": [
        {
          "internalType": "bytes32",
          "name": "role",
          "type": "bytes32"
        }
      ],
      "name": "getRoleAdmin",
      "outputs": [
        {
          "internalType": "bytes32",
          "name": "",
          "type": "bytes32"
        }
      ],
      "stateMutability": "view",
      "type": "function"
    },
    {
      "inputs": [
        {
          "internalType": "bytes32",
          "name": "role",
          "type": "bytes32"
        },
        {
          "internalType": "address",
          "name": "account",
          "type": "address"
        }
      ],
      "name": "grantRole",
      "outputs": [],
      "stateMutability": "nonpayable",
      "type": "function"
    },
    {
      "inputs": [
        {
          "internalType": "bytes32",
          "name": "role",
          "type": "bytes32"
        },
        {
          "internalType": "address",
          "name": "account",
          "type": "address"
        }
      ],
      "name": "hasRole",
      "outputs": [
        {
          "internalType": "bool",
          "name": "",
          "type": "bool"
        }
      ],
      "stateMutability": "view",
      "type": "function"
    },
    {
      "inputs": [
        {
          "internalType": "address",
          "name": "account",
          "type": "address"
        },
        {
          "internalType": "uint256",
          "name": "amount",
          "type": "uint256"
        }
      ],
      "name": "mint",
      "outputs": [
        {
          "internalType": "bool",
          "name": "",
          "type": "bool"
        }
      ],
      "stateMutability": "nonpayable",
      "type": "function"
    },
    {
      "inputs": [],
      "name": "name",
      "outputs": [
        {
          "internalType": "string",
          "name": "",
          "type": "string"
        }
      ],
      "stateMutability": "view",
      "type": "function"
    },
    {
      "inputs": [
        {
          "internalType": "address",
          "name": "owner",
          "type": "address"
        }
      ],
      "name": "nonces",
      "outputs": [
        {
          "internalType": "uint256",
          "name": "",
          "type": "uint256"
        }
      ],
      "stateMutability": "view",
      "type": "function"
    },
    {
      "inputs": [
        {
          "internalType": "address",
          "name": "owner",
          "type": "address"
        },
        {
          "internalType": "address",
          "name": "spender",
          "type": "address"
        },
        {
          "internalType": "uint256",
          "name": "value",
          "type": "uint256"
        },
        {
          "internalType": "uint256",
          "name": "deadline",
          "type": "uint256"
        },
        {
          "internalType": "uint8",
          "name": "v",
          "type": "uint8"
        },
        {
          "internalType": "bytes32",
          "name": "r",
          "type": "bytes32"
        },
        {
          "internalType": "bytes32",
          "name": "s",
          "type": "bytes32"
        }
      ],
      "name": "permit",
      "outputs": [],
      "stateMutability": "nonpayable",
      "type": "function"
    },
    {
      "inputs": [
        {
          "internalType": "bytes32",
          "name": "role",
          "type": "bytes32"
        },
        {
          "internalType": "address",
          "name": "callerConfirmation",
          "type": "address"
        }
      ],
      "name": "renounceRole",
      "outputs": [],
      "stateMutability": "nonpayable",
      "type": "function"
    },
    {
      "inputs": [
        {
          "internalType": "bytes32",
          "name": "role",
          "type": "bytes32"
        },
        {
          "internalType": "address",
          "name": "account",
          "type": "address"
        }
      ],
      "name": "revokeRole",
      "outputs": [],
      "stateMutability": "nonpayable",
      "type": "function"
    },
    {
      "inputs": [
        {
          "internalType": "bytes4",
          "name": "interfaceId",
          "type": "bytes4"
        }
      ],
      "name": "supportsInterface",
      "outputs": [
        {
          "internalType": "bool",
          "name": "",
          "type": "bool"
        }
      ],
      "stateMutability": "view",
      "type": "function"
    },
    {
      "inputs": [],
      "name": "symbol",
      "outputs": [
        {
          "internalType": "string",
          "name": "",
          "type": "string"
        }
      ],
      "stateMutability": "view",
      "type": "function"
    },
    {
      "inputs": [],
      "name": "totalSupply",
      "outputs": [
        {
          "internalType": "uint256",
          "name": "",
          "type": "uint256"
        }
      ],
      "stateMutability": "view",
      "type": "function"
    },
    {
      "inputs": [
        {
          "internalType": "address",
          "name": "to",
          "type": "address"
        },
        {
          "internalType": "uint256",
          "name": "value",
          "type": "uint256"
        }
      ],
      "name": "transfer",
      "outputs": [
        {
          "internalType": "bool",
          "name": "",
          "type": "bool"
        }
      ],
      "stateMutability": "nonpayable",
      "type": "function"
    },
    {
      "inputs": [
        {
          "internalType": "address",
          "name": "from",
          "type": "address"
        },
        {
          "internalType": "address",
          "name": "to",
          "type": "address"
        },
        {
          "internalType": "uint256",
          "name": "value",
          "type": "uint256"
        }
      ],
      "name": "transferFrom",
      "outputs": [
        {
          "internalType": "bool",
          "name": "",
          "type": "bool"
        }
      ],
      "stateMutability": "nonpayable",
      "type": "function"
    }
  ],
  "bytecode": {
    "object": "0x6101606040523480156200001257600080fd5b506040516200190c3803806200190c833981016040819052620000359162000341565b6040805180820190915260018152603160f81b602082015281908190848260046200006183826200043a565b5060056200007082826200043a565b50620000829150839050600662000141565b610120526200009381600762000141565b61014052815160208084019190912060e052815190820120610100524660a0526200012160e05161010051604080517f8b73c3c69bb8fe3d512ecc4cf759cc79239f7b179b0ffacaa9a75d522b39400f60208201529081019290925260608201524660808201523060a082015260009060c00160405160208183030381529060405280519060200120905090565b60805250503060c05250620001386000336200017a565b50505062000560565b60006020835110156200016157620001598362000228565b905062000174565b816200016e84826200043a565b5060ff90505b92915050565b6000828152602081815260408083206001600160a01b038516845290915281205460ff166200021f576000838152602081815260408083206001600160a01b03861684529091529020805460ff19166001179055620001d63390565b6001600160a01b0316826001600160a01b0316847f2f8788117e7eff1d82e926ec794901d17c78024a50270940304540a733656f0d60405160405180910390a450600162000174565b50600062000174565b600080829050601f815111156200025f578260405163305a27a960e01b815260040162000256919062000506565b60405180910390fd5b80516200026c826200053b565b179392505050565b634e487b7160e01b600052604160045260246000fd5b60005b83811015620002a75781810151838201526020016200028d565b50506000910152565b600082601f830112620002c257600080fd5b81516001600160401b0380821115620002df57620002df62000274565b604051601f8301601f19908116603f011681019082821181831017156200030a576200030a62000274565b816040528381528660208588010111156200032457600080fd5b620003378460208301602089016200028a565b9695505050505050565b600080604083850312156200035557600080fd5b82516001600160401b03808211156200036d57600080fd5b6200037b86838701620002b0565b935060208501519150808211156200039257600080fd5b50620003a185828601620002b0565b9150509250929050565b600181811c90821680620003c057607f821691505b602082108103620003e157634e487b7160e01b600052602260045260246000fd5b50919050565b601f8211156200043557600081815260208120601f850160051c81016020861015620004105750805b601f850160051c820191505b8181101562000431578281556001016200041c565b5050505b505050565b81516001600160401b0381111562000456576200045662000274565b6200046e81620004678454620003ab565b84620003e7565b602080601f831160018114620004a657600084156200048d5750858301515b600019600386901b1c1916600185901b17855562000431565b600085815260208120601f198616915b82811015620004d757888601518255948401946001909101908401620004b6565b5085821015620004f65787850151600019600388901b60f8161c191681555b5050505050600190811b01905550565b6020815260008251806020840152620005278160408501602087016200028a565b601f01601f19169190910160400192915050565b80516020808301519190811015620003e15760001960209190910360031b1b16919050565b60805160a05160c05160e051610100516101205161014051611351620005bb6000396000610a8201526000610a5501526000610958015260006109300152600061088b015260006108b5015260006108df01526113516000f3fe608060405234801561001057600080fd5b50600436106101425760003560e01c806370a08231116100b85780639dc29fac1161007c5780639dc29fac146102a3578063a217fddf146102b6578063a9059cbb146102be578063d505accf146102d1578063d547741f146102e4578063dd62ed3e146102f757600080fd5b806370a08231146102315780637ecebe001461025a57806384b0196e1461026d57806391d148541461028857806395d89b411461029b57600080fd5b8063248a9ca31161010a578063248a9ca3146101bc5780632f2ff15d146101df578063313ce567146101f45780633644e5151461020357806336568abe1461020b57806340c10f191461021e57600080fd5b806301ffc9a71461014757806306fdde031461016f578063095ea7b31461018457806318160ddd1461019757806323b872dd146101a9575b600080fd5b61015a61015536600461100b565b610330565b60405190151581526020015b60405180910390f35b610177610367565b6040516101669190611082565b61015a6101923660046110b1565b6103f9565b6003545b604051908152602001610166565b61015a6101b73660046110db565b610411565b61019b6101ca366004611117565b60009081526020819052604090206001015490565b6101f26101ed366004611130565b610435565b005b60405160128152602001610166565b61019b610460565b6101f2610219366004611130565b61046f565b61015a61022c3660046110b1565b6104a7565b61019b61023f36600461115c565b6001600160a01b031660009081526001602052604090205490565b61019b61026836600461115c565b6104bd565b6102756104db565b6040516101669796959493929190611177565b61015a610296366004611130565b610521565b61017761054a565b61015a6102b13660046110b1565b610559565b61019b600081565b61015a6102cc3660046110b1565b610589565b6101f26102df36600461120d565b610597565b6101f26102f2366004611130565b6106d6565b61019b610305366004611280565b6001600160a01b03918216600090815260026020908152604080832093909416825291909152205490565b60006001600160e01b03198216637965db0b60e01b148061036157506301ffc9a760e01b6001600160e01b03198316145b92915050565b606060048054610376906112aa565b80601f01602080910402602001604051908101604052809291908181526020018280546103a2906112aa565b80156103ef5780601f106103c4576101008083540402835291602001916103ef565b820191906000526020600020905b8154815290600101906020018083116103d257829003601f168201915b5050505050905090565b6000336104078185856106fb565b5060019392505050565b60003361041f858285610708565b61042a858585610780565b506001949350505050565b600082815260208190526040902060010154610450816107df565b61045a83836107ec565b50505050565b600061046a61087e565b905090565b6001600160a01b03811633146104985760405163334bd91960e11b815260040160405180910390fd5b6104a282826109a9565b505050565b6000806104b3816107df565b6104078484610a14565b6001600160a01b038116600090815260086020526040812054610361565b6000606080600080600060606104ef610a4e565b6104f7610a7b565b60408051600080825260208201909252600f60f81b9b939a50919850469750309650945092509050565b6000918252602082815260408084206001600160a01b0393909316845291905290205460ff1690565b606060058054610376906112aa565b60006001600160a01b038316331461057657610576338484610708565b6105808383610aa8565b50600192915050565b600033610407818585610780565b834211156105c05760405163313c898160e11b8152600481018590526024015b60405180910390fd5b60007f6e71edae12b1b97f4d1f60370fef10105fa2faae0126114a169c64845d6126c988888861060d8c6001600160a01b0316600090815260086020526040902080546001810190915590565b6040805160208101969096526001600160a01b0394851690860152929091166060840152608083015260a082015260c0810186905260e001604051602081830303815290604052805190602001209050600061066882610ade565b9050600061067882878787610b0b565b9050896001600160a01b0316816001600160a01b0316146106bf576040516325c0072360e11b81526001600160a01b0380831660048301528b1660248201526044016105b7565b6106ca8a8a8a6106fb565b50505050505050505050565b6000828152602081905260409020600101546106f1816107df565b61045a83836109a9565b6104a28383836001610b39565b6001600160a01b03838116600090815260026020908152604080832093861683529290522054600019811461045a578181101561077157604051637dc7a0d960e11b81526001600160a01b038416600482015260248101829052604481018390526064016105b7565b61045a84848484036000610b39565b6001600160a01b0383166107aa57604051634b637e8f60e11b8152600060048201526024016105b7565b6001600160a01b0382166107d45760405163ec442f0560e01b8152600060048201526024016105b7565b6104a2838383610c0e565b6107e98133610d38565b50565b60006107f88383610521565b610876576000838152602081815260408083206001600160a01b03861684529091529020805460ff1916600117905561082e3390565b6001600160a01b0316826001600160a01b0316847f2f8788117e7eff1d82e926ec794901d17c78024a50270940304540a733656f0d60405160405180910390a4506001610361565b506000610361565b6000306001600160a01b037f0000000000000000000000000000000000000000000000000000000000000000161480156108d757507f000000000000000000000000000000000000000000000000000000000000000046145b1561090157507f000000000000000000000000000000000000000000000000000000000000000090565b61046a604080517f8b73c3c69bb8fe3d512ecc4cf759cc79239f7b179b0ffacaa9a75d522b39400f60208201527f0000000000000000000000000000000000000000000000000000000000000000918101919091527f000000000000000000000000000000000000000000000000000000000000000060608201524660808201523060a082015260009060c00160405160208183030381529060405280519060200120905090565b60006109b58383610521565b15610876576000838152602081815260408083206001600160a01b0386168085529252808320805460ff1916905551339286917ff6391f5c32d9c69d2a47ea670b442974b53935d1edc7fd64eb21e047a839171b9190a4506001610361565b6001600160a01b038216610a3e5760405163ec442f0560e01b8152600060048201526024016105b7565b610a4a60008383610c0e565b5050565b606061046a7f00000000000000000000000000000000000000000000000000000000000000006006610d71565b606061046a7f00000000000000000000000000000000000000000000000000000000000000006007610d71565b6001600160a01b038216610ad257604051634b637e8f60e11b8152600060048201526024016105b7565b610a4a82600083610c0e565b6000610361610aeb61087e565b8360405161190160f01b8152600281019290925260228201526042902090565b600080600080610b1d88888888610e1c565b925092509250610b2d8282610eeb565b50909695505050505050565b6001600160a01b038416610b635760405163e602df0560e01b8152600060048201526024016105b7565b6001600160a01b038316610b8d57604051634a1406b160e11b8152600060048201526024016105b7565b6001600160a01b038085166000908152600260209081526040808320938716835292905220829055801561045a57826001600160a01b0316846001600160a01b03167f8c5be1e5ebec7d5bd14f71427d1e84f3dd0314c0f7b2291e5b200ac8c7c3b92584604051610c0091815260200190565b60405180910390a350505050565b6001600160a01b038316610c39578060036000828254610c2e91906112e4565b90915550610cab9050565b6001600160a01b03831660009081526001602052604090205481811015610c8c5760405163391434e360e21b81526001600160a01b038516600482015260248101829052604481018390526064016105b7565b6001600160a01b03841660009081526001602052604090209082900390555b6001600160a01b038216610cc757600380548290039055610ce6565b6001600160a01b03821660009081526001602052604090208054820190555b816001600160a01b0316836001600160a01b03167fddf252ad1be2c89b69c2b068fc378daa952ba7f163c4a11628f55a4df523b3ef83604051610d2b91815260200190565b60405180910390a3505050565b610d428282610521565b610a4a5760405163e2517d3f60e01b81526001600160a01b0382166004820152602481018390526044016105b7565b606060ff8314610d8b57610d8483610fa4565b9050610361565b818054610d97906112aa565b80601f0160208091040260200160405190810160405280929190818152602001828054610dc3906112aa565b8015610e105780601f10610de557610100808354040283529160200191610e10565b820191906000526020600020905b815481529060010190602001808311610df357829003601f168201915b50505050509050610361565b600080807f7fffffffffffffffffffffffffffffff5d576e7357a4501ddfe92f46681b20a0841115610e575750600091506003905082610ee1565b604080516000808252602082018084528a905260ff891692820192909252606081018790526080810186905260019060a0016020604051602081039080840390855afa158015610eab573d6000803e3d6000fd5b5050604051601f1901519150506001600160a01b038116610ed757506000925060019150829050610ee1565b9250600091508190505b9450945094915050565b6000826003811115610eff57610eff611305565b03610f08575050565b6001826003811115610f1c57610f1c611305565b03610f3a5760405163f645eedf60e01b815260040160405180910390fd5b6002826003811115610f4e57610f4e611305565b03610f6f5760405163fce698f760e01b8152600481018290526024016105b7565b6003826003811115610f8357610f83611305565b03610a4a576040516335e2f38360e21b8152600481018290526024016105b7565b60606000610fb183610fe3565b604080516020808252818301909252919250600091906020820181803683375050509182525060208101929092525090565b600060ff8216601f81111561036157604051632cd44ac360e21b815260040160405180910390fd5b60006020828403121561101d57600080fd5b81356001600160e01b03198116811461103557600080fd5b9392505050565b6000815180845260005b8181101561106257602081850181015186830182015201611046565b506000602082860101526020601f19601f83011685010191505092915050565b602081526000611035602083018461103c565b80356001600160a01b03811681146110ac57600080fd5b919050565b600080604083850312156110c457600080fd5b6110cd83611095565b946020939093013593505050565b6000806000606084860312156110f057600080fd5b6110f984611095565b925061110760208501611095565b9150604084013590509250925092565b60006020828403121561112957600080fd5b5035919050565b6000806040838503121561114357600080fd5b8235915061115360208401611095565b90509250929050565b60006020828403121561116e57600080fd5b61103582611095565b60ff60f81b881681526000602060e08184015261119760e084018a61103c565b83810360408501526111a9818a61103c565b606085018990526001600160a01b038816608086015260a0850187905284810360c0860152855180825283870192509083019060005b818110156111fb578351835292840192918401916001016111df565b50909c9b505050505050505050505050565b600080600080600080600060e0888a03121561122857600080fd5b61123188611095565b965061123f60208901611095565b95506040880135945060608801359350608088013560ff8116811461126357600080fd5b9699959850939692959460a0840135945060c09093013592915050565b6000806040838503121561129357600080fd5b61129c83611095565b915061115360208401611095565b600181811c908216806112be57607f821691505b6020821081036112de57634e487b7160e01b600052602260045260246000fd5b50919050565b8082018082111561036157634e487b7160e01b600052601160045260246000fd5b634e487b7160e01b600052602160045260246000fdfea26469706673582212208f535b4cdfbcb75b967bc1d549a75161f441e79074bb0a0f89ddb5877428ab1964736f6c63430008150033",
    "linkReferences": {}
  },
  "methodIdentifiers": {
    "DEFAULT_ADMIN_ROLE()": "a217fddf",
    "DOMAIN_SEPARATOR()": "3644e515",
    "allowance(address,address)": "dd62ed3e",
    "approve(address,uint256)": "095ea7b3",
    "balanceOf(address)": "70a08231",
    "burn(address,uint256)": "9dc29fac",
    "decimals()": "313ce567",
    "eip712Domain()": "84b0196e",
    "getRoleAdmin(bytes32)": "248a9ca3",
    "grantRole(bytes32,address)": "2f2ff15d",
    "hasRole(bytes32,address)": "91d14854",
    "mint(address,uint256)": "40c10f19",
    "name()": "06fdde03",
    "nonces(address)": "7ecebe00",
    "permit(address,address,uint256,uint256,uint8,bytes32,bytes32)": "d505accf",
    "renounceRole(bytes32,address)": "36568abe",
    "revokeRole(bytes32,address)": "d547741f",
    "supportsInterface(bytes4)": "01ffc9a7",
    "symbol()": "95d89b41",
    "totalSupply()": "18160ddd",
    "transfer(address,uint256)": "a9059cbb",
    "transferFrom(address,address,uint256)": "23b872dd"
  },
  "id": 48
}