{
  "abi": [
    {
      "inputs": [],
      "stateMutability": "nonpayable",
      "type": "constructor"
    },
    {
      "inputs": [],
      "name": "AccessControlBadConfirmation",
      "type": "error"
    },
    {
      "inputs": [
        {
          "internalType": "address",
          "name": "account",
          "type": "address"
        },
        {
          "internalType": "bytes32",
          "name": "neededRole",
          "type": "bytes32"
        }
      ],
      "name": "AccessControlUnauthorizedAccount",
      "type": "error"
    },
    {
      "inputs": [],
      "name": "ECDSAInvalidSignature",
      "type": "error"
    },
    {
      "inputs": [
        {
          "internalType": "uint256",
          "name": "length",
          "type": "uint256"
        }
      ],
      "name": "ECDSAInvalidSignatureLength",
      "type": "error"
    },
    {
      "inputs": [
        {
          "internalType": "bytes32",
          "name": "s",
          "type": "bytes32"
        }
      ],
      "name": "ECDSAInvalidSignatureS",
      "type": "error"
    },
    {
      "inputs": [
        {
          "internalType": "address",
          "name": "spender",
          "type": "address"
        },
        {
          "internalType": "uint256",
          "name": "allowance",
          "type": "uint256"
        },
        {
          "internalType": "uint256",
          "name": "needed",
          "type": "uint256"
        }
      ],
      "name": "ERC20InsufficientAllowance",
      "type": "error"
    },
    {
      "inputs": [
        {
          "internalType": "address",
          "name": "sender",
          "type": "address"
        },
        {
          "internalType": "uint256",
          "name": "balance",
          "type": "uint256"
        },
        {
          "internalType": "uint256",
          "name": "needed",
          "type": "uint256"
        }
      ],
      "name": "ERC20InsufficientBalance",
      "type": "error"
    },
    {
      "inputs": [
        {
          "internalType": "address",
          "name": "approver",
          "type": "address"
        }
      ],
      "name": "ERC20InvalidApprover",
      "type": "error"
    },
    {
      "inputs": [
        {
          "internalType": "address",
          "name": "receiver",
          "type": "address"
        }
      ],
      "name": "ERC20InvalidReceiver",
      "type": "error"
    },
    {
      "inputs": [
        {
          "internalType": "address",
          "name": "sender",
          "type": "address"
        }
      ],
      "name": "ERC20InvalidSender",
      "type": "error"
    },
    {
      "inputs": [
        {
          "internalType": "address",
          "name": "spender",
          "type": "address"
        }
      ],
      "name": "ERC20InvalidSpender",
      "type": "error"
    },
    {
      "inputs": [
        {
          "internalType": "uint256",
          "name": "deadline",
          "type": "uint256"
        }
      ],
      "name": "ERC2612ExpiredSignature",
      "type": "error"
    },
    {
      "inputs": [
        {
          "internalType": "address",
          "name": "signer",
          "type": "address"
        },
        {
          "internalType": "address",
          "name": "owner",
          "type": "address"
        }
      ],
      "name": "ERC2612InvalidSigner",
      "type": "error"
    },
    {
      "inputs": [
        {
          "internalType": "address",
          "name": "account",
          "type": "address"
        },
        {
          "internalType": "uint256",
          "name": "currentNonce",
          "type": "uint256"
        }
      ],
      "name": "InvalidAccountNonce",
      "type": "error"
    },
    {
      "inputs": [],
      "name": "InvalidShortString",
      "type": "error"
    },
    {
      "inputs": [
        {
          "internalType": "string",
          "name": "str",
          "type": "string"
        }
      ],
      "name": "StringTooLong",
      "type": "error"
    },
    {
      "anonymous": false,
      "inputs": [
        {
          "indexed": true,
          "internalType": "address",
          "name": "owner",
          "type": "address"
        },
        {
          "indexed": true,
          "internalType": "address",
          "name": "spender",
          "type": "address"
        },
        {
          "indexed": false,
          "internalType": "uint256",
          "name": "value",
          "type": "uint256"
        }
      ],
      "name": "Approval",
      "type": "event"
    },
    {
      "anonymous": false,
      "inputs": [],
      "name": "EIP712DomainChanged",
      "type": "event"
    },
    {
      "anonymous": false,
      "inputs": [
        {
          "indexed": true,
          "internalType": "bytes32",
          "name": "role",
          "type": "bytes32"
        },
        {
          "indexed": true,
          "internalType": "bytes32",
          "name": "previousAdminRole",
          "type": "bytes32"
        },
        {
          "indexed": true,
          "internalType": "bytes32",
          "name": "newAdminRole",
          "type": "bytes32"
        }
      ],
      "name": "RoleAdminChanged",
      "type": "event"
    },
    {
      "anonymous": false,
      "inputs": [
        {
          "indexed": true,
          "internalType": "bytes32",
          "name": "role",
          "type": "bytes32"
        },
        {
          "indexed": true,
          "internalType": "address",
          "name": "account",
          "type": "address"
        },
        {
          "indexed": true,
          "internalType": "address",
          "name": "sender",
          "type": "address"
        }
      ],
      "name": "RoleGranted",
      "type": "event"
    },
    {
      "anonymous": false,
      "inputs": [
        {
          "indexed": true,
          "internalType": "bytes32",
          "name": "role",
          "type": "bytes32"
        },
        {
          "indexed": true,
          "internalType": "address",
          "name": "account",
          "type": "address"
        },
        {
          "indexed": true,
          "internalType": "address",
          "name": "sender",
          "type": "address"
        }
      ],
      "name": "RoleRevoked",
      "type": "event"
    },
    {
      "anonymous": false,
      "inputs": [
        {
          "indexed": true,
          "internalType": "address",
          "name": "from",
          "type": "address"
        },
        {
          "indexed": true,
          "internalType": "address",
          "name": "to",
          "type": "address"
        },
        {
          "indexed": false,
          "internalType": "uint256",
          "name": "value",
          "type": "uint256"
        }
      ],
      "name": "Transfer",
      "type": "event"
    },
    {
      "inputs": [],
      "name": "DEFAULT_ADMIN_ROLE",
      "outputs": [
        {
          "internalType": "bytes32",
          "name": "",
          "type": "bytes32"
        }
      ],
      "stateMutability": "view",
      "type": "function"
    },
    {
      "inputs": [],
      "name": "DOMAIN_SEPARATOR",
      "outputs": [
        {
          "internalType": "bytes32",
          "name": "",
          "type": "bytes32"
        }
      ],
      "stateMutability": "view",
      "type": "function"
    },
    {
      "inputs": [
        {
          "internalType": "address",
          "name": "owner",
          "type": "address"
        },
        {
          "internalType": "address",
          "name": "spender",
          "type": "address"
        }
      ],
      "name": "allowance",
      "outputs": [
        {
          "internalType": "uint256",
          "name": "",
          "type": "uint256"
        }
      ],
      "stateMutability": "view",
      "type": "function"
    },
    {
      "inputs": [
        {
          "internalType": "address",
          "name": "spender",
          "type": "address"
        },
        {
          "internalType": "uint256",
          "name": "value",
          "type": "uint256"
        }
      ],
      "name": "approve",
      "outputs": [
        {
          "internalType": "bool",
          "name": "",
          "type": "bool"
        }
      ],
      "stateMutability": "nonpayable",
      "type": "function"
    },
    {
      "inputs": [
        {
          "internalType": "address",
          "name": "account",
          "type": "address"
        }
      ],
      "name": "balanceOf",
      "outputs": [
        {
          "internalType": "uint256",
          "name": "",
          "type": "uint256"
        }
      ],
      "stateMutability": "view",
      "type": "function"
    },
    {
      "inputs": [
        {
          "internalType": "address",
          "name": "account",
          "type": "address"
        },
        {
          "internalType": "uint256",
          "name": "amount",
          "type": "uint256"
        }
      ],
      "name": "burn",
      "outputs": [
        {
          "internalType": "bool",
          "name": "",
          "type": "bool"
        }
      ],
      "stateMutability": "nonpayable",
      "type": "function"
    },
    {
      "inputs": [],
      "name": "decimals",
      "outputs": [
        {
          "internalType": "uint8",
          "name": "",
          "type": "uint8"
        }
      ],
      "stateMutability": "view",
      "type": "function"
    },
    {
      "inputs": [],
      "name": "eip712Domain",
      "outputs": [
        {
          "internalType": "bytes1",
          "name": "fields",
          "type": "bytes1"
        },
        {
          "internalType": "string",
          "name": "name",
          "type": "string"
        },
        {
          "internalType": "string",
          "name": "version",
          "type": "string"
        },
        {
          "internalType": "uint256",
          "name": "chainId",
          "type": "uint256"
        },
        {
          "internalType": "address",
          "name": "verifyingContract",
          "type": "address"
        },
        {
          "internalType": "bytes32",
          "name": "salt",
          "type": "bytes32"
        },
        {
          "internalType": "uint256[]",
          "name": "extensions",
          "type": "uint256[]"
        }
      ],
      "stateMutability": "view",
      "type": "function"
    },
    {
      "inputs": [
        {
          "internalType": "bytes32",
          "name": "role",
          "type": "bytes32"
        }
      ],
      "name": "getRoleAdmin",
      "outputs": [
        {
          "internalType": "bytes32",
          "name": "",
          "type": "bytes32"
        }
      ],
      "stateMutability": "view",
      "type": "function"
    },
    {
      "inputs": [
        {
          "internalType": "bytes32",
          "name": "role",
          "type": "bytes32"
        },
        {
          "internalType": "address",
          "name": "account",
          "type": "address"
        }
      ],
      "name": "grantRole",
      "outputs": [],
      "stateMutability": "nonpayable",
      "type": "function"
    },
    {
      "inputs": [
        {
          "internalType": "bytes32",
          "name": "role",
          "type": "bytes32"
        },
        {
          "internalType": "address",
          "name": "account",
          "type": "address"
        }
      ],
      "name": "hasRole",
      "outputs": [
        {
          "internalType": "bool",
          "name": "",
          "type": "bool"
        }
      ],
      "stateMutability": "view",
      "type": "function"
    },
    {
      "inputs": [
        {
          "internalType": "address",
          "name": "account",
          "type": "address"
        },
        {
          "internalType": "uint256",
          "name": "amount",
          "type": "uint256"
        }
      ],
      "name": "mint",
      "outputs": [
        {
          "internalType": "bool",
          "name": "",
          "type": "bool"
        }
      ],
      "stateMutability": "nonpayable",
      "type": "function"
    },
    {
      "inputs": [],
      "name": "name",
      "outputs": [
        {
          "internalType": "string",
          "name": "",
          "type": "string"
        }
      ],
      "stateMutability": "view",
      "type": "function"
    },
    {
      "inputs": [
        {
          "internalType": "address",
          "name": "owner",
          "type": "address"
        }
      ],
      "name": "nonces",
      "outputs": [
        {
          "internalType": "uint256",
          "name": "",
          "type": "uint256"
        }
      ],
      "stateMutability": "view",
      "type": "function"
    },
    {
      "inputs": [
        {
          "internalType": "address",
          "name": "owner",
          "type": "address"
        },
        {
          "internalType": "address",
          "name": "spender",
          "type": "address"
        },
        {
          "internalType": "uint256",
          "name": "value",
          "type": "uint256"
        },
        {
          "internalType": "uint256",
          "name": "deadline",
          "type": "uint256"
        },
        {
          "internalType": "uint8",
          "name": "v",
          "type": "uint8"
        },
        {
          "internalType": "bytes32",
          "name": "r",
          "type": "bytes32"
        },
        {
          "internalType": "bytes32",
          "name": "s",
          "type": "bytes32"
        }
      ],
      "name": "permit",
      "outputs": [],
      "stateMutability": "nonpayable",
      "type": "function"
    },
    {
      "inputs": [
        {
          "internalType": "bytes32",
          "name": "role",
          "type": "bytes32"
        },
        {
          "internalType": "address",
          "name": "callerConfirmation",
          "type": "address"
        }
      ],
      "name": "renounceRole",
      "outputs": [],
      "stateMutability": "nonpayable",
      "type": "function"
    },
    {
      "inputs": [
        {
          "internalType": "bytes32",
          "name": "role",
          "type": "bytes32"
        },
        {
          "internalType": "address",
          "name": "account",
          "type": "address"
        }
      ],
      "name": "revokeRole",
      "outputs": [],
      "stateMutability": "nonpayable",
      "type": "function"
    },
    {
      "inputs": [
        {
          "internalType": "address",
          "name": "account",
          "type": "address"
        }
      ],
      "name": "setMinterRole",
      "outputs": [],
      "stateMutability": "nonpayable",
      "type": "function"
    },
    {
      "inputs": [
        {
          "internalType": "bytes4",
          "name": "interfaceId",
          "type": "bytes4"
        }
      ],
      "name": "supportsInterface",
      "outputs": [
        {
          "internalType": "bool",
          "name": "",
          "type": "bool"
        }
      ],
      "stateMutability": "view",
      "type": "function"
    },
    {
      "inputs": [],
      "name": "symbol",
      "outputs": [
        {
          "internalType": "string",
          "name": "",
          "type": "string"
        }
      ],
      "stateMutability": "view",
      "type": "function"
    },
    {
      "inputs": [],
      "name": "totalSupply",
      "outputs": [
        {
          "internalType": "uint256",
          "name": "",
          "type": "uint256"
        }
      ],
      "stateMutability": "view",
      "type": "function"
    },
    {
      "inputs": [
        {
          "internalType": "address",
          "name": "to",
          "type": "address"
        },
        {
          "internalType": "uint256",
          "name": "value",
          "type": "uint256"
        }
      ],
      "name": "transfer",
      "outputs": [
        {
          "internalType": "bool",
          "name": "",
          "type": "bool"
        }
      ],
      "stateMutability": "nonpayable",
      "type": "function"
    },
    {
      "inputs": [
        {
          "internalType": "address",
          "name": "from",
          "type": "address"
        },
        {
          "internalType": "address",
          "name": "to",
          "type": "address"
        },
        {
          "internalType": "uint256",
          "name": "value",
          "type": "uint256"
        }
      ],
      "name": "transferFrom",
      "outputs": [
        {
          "internalType": "bool",
          "name": "",
          "type": "bool"
        }
      ],
      "stateMutability": "nonpayable",
      "type": "function"
    },
    {
      "inputs": [],
      "name": "withdraw",
      "outputs": [],
      "stateMutability": "nonpayable",
      "type": "function"
    },
    {
      "inputs": [
        {
          "internalType": "address",
          "name": "tokenAddress",
          "type": "address"
        },
        {
          "internalType": "address",
          "name": "account",
          "type": "address"
        }
      ],
      "name": "withdrawToken",
      "outputs": [],
      "stateMutability": "nonpayable",
      "type": "function"
    }
  ],
  "bytecode": {
    "object": "0x6101606040523480156200001257600080fd5b50604051806040016040528060048152602001633c2723a760e11b81525080604051806040016040528060018152602001603160f81b815250604051806040016040528060048152602001633c2723a760e11b815250604051806040016040528060048152602001633c2723a760e11b81525081600490816200009691906200034c565b506005620000a582826200034c565b50620000b79150839050600662000174565b61012052620000c881600762000174565b61014052815160208084019190912060e052815190820120610100524660a0526200015660e05161010051604080517f8b73c3c69bb8fe3d512ecc4cf759cc79239f7b179b0ffacaa9a75d522b39400f60208201529081019290925260608201524660808201523060a082015260009060c00160405160208183030381529060405280519060200120905090565b60805250503060c052506200016d600033620001ad565b506200048d565b600060208351101562000194576200018c836200025b565b9050620001a7565b81620001a184826200034c565b5060ff90505b92915050565b6000828152602081815260408083206001600160a01b038516845290915281205460ff1662000252576000838152602081815260408083206001600160a01b03861684529091529020805460ff19166001179055620002093390565b6001600160a01b0316826001600160a01b0316847f2f8788117e7eff1d82e926ec794901d17c78024a50270940304540a733656f0d60405160405180910390a4506001620001a7565b506000620001a7565b600080829050601f8151111562000292578260405163305a27a960e01b815260040162000289919062000418565b60405180910390fd5b80516200029f8262000468565b179392505050565b634e487b7160e01b600052604160045260246000fd5b600181811c90821680620002d257607f821691505b602082108103620002f357634e487b7160e01b600052602260045260246000fd5b50919050565b601f8211156200034757600081815260208120601f850160051c81016020861015620003225750805b601f850160051c820191505b8181101562000343578281556001016200032e565b5050505b505050565b81516001600160401b03811115620003685762000368620002a7565b6200038081620003798454620002bd565b84620002f9565b602080601f831160018114620003b857600084156200039f5750858301515b600019600386901b1c1916600185901b17855562000343565b600085815260208120601f198616915b82811015620003e957888601518255948401946001909101908401620003c8565b5085821015620004085787850151600019600388901b60f8161c191681555b5050505050600190811b01905550565b600060208083528351808285015260005b81811015620004475785810183015185820160400152820162000429565b506000604082860101526040601f19601f8301168501019250505092915050565b80516020808301519190811015620002f35760001960209190910360031b1b16919050565b60805160a05160c05160e0516101005161012051610140516115ce620004e86000396000610cc401526000610c9701526000610b9a01526000610b7201526000610acd01526000610af701526000610b2101526115ce6000f3fe608060405234801561001057600080fd5b50600436106101735760003560e01c806340c10f19116100de57806395d89b4111610097578063a9059cbb11610071578063a9059cbb1461031d578063d505accf14610330578063d547741f14610343578063dd62ed3e1461035657600080fd5b806395d89b41146102fa5780639dc29fac14610302578063a217fddf1461031557600080fd5b806340c10f191461026a57806370a082311461027d5780637ecebe00146102a657806384b0196e146102b957806391d14854146102d4578063945d1229146102e757600080fd5b80632f2ff15d116101305780632f2ff15d14610210578063313ce567146102255780633644e5151461023457806336568abe1461023c5780633aeac4e11461024f5780633ccfd60b1461026257600080fd5b806301ffc9a71461017857806306fdde03146101a0578063095ea7b3146101b557806318160ddd146101c857806323b872dd146101da578063248a9ca3146101ed575b600080fd5b61018b61018636600461124d565b61038f565b60405190151581526020015b60405180910390f35b6101a86103c6565b60405161019791906112c4565b61018b6101c33660046112f3565b610458565b6003545b604051908152602001610197565b61018b6101e836600461131d565b610470565b6101cc6101fb366004611359565b60009081526020819052604090206001015490565b61022361021e366004611372565b610494565b005b60405160128152602001610197565b6101cc6104bf565b61022361024a366004611372565b6104ce565b61022361025d36600461139e565b610506565b6102236105fd565b61018b6102783660046112f3565b610699565b6101cc61028b3660046113c8565b6001600160a01b031660009081526001602052604090205490565b6101cc6102b43660046113c8565b6106cf565b6102c16106ed565b60405161019797969594939291906113e3565b61018b6102e2366004611372565b610733565b6102236102f53660046113c8565b61075c565b6101a8610791565b61018b6103103660046112f3565b6107a0565b6101cc600081565b61018b61032b3660046112f3565b6107d0565b61022361033e366004611479565b6107de565b610223610351366004611372565b610918565b6101cc61036436600461139e565b6001600160a01b03918216600090815260026020908152604080832093909416825291909152205490565b60006001600160e01b03198216637965db0b60e01b14806103c057506301ffc9a760e01b6001600160e01b03198316145b92915050565b6060600480546103d5906114ec565b80601f0160208091040260200160405190810160405280929190818152602001828054610401906114ec565b801561044e5780601f106104235761010080835404028352916020019161044e565b820191906000526020600020905b81548152906001019060200180831161043157829003601f168201915b5050505050905090565b60003361046681858561093d565b5060019392505050565b60003361047e85828561094a565b6104898585856109c2565b506001949350505050565b6000828152602081905260409020600101546104af81610a21565b6104b98383610a2e565b50505050565b60006104c9610ac0565b905090565b6001600160a01b03811633146104f75760405163334bd91960e11b815260040160405180910390fd5b6105018282610beb565b505050565b600061051181610a21565b6040516370a0823160e01b815230600482015283906000906001600160a01b038316906370a0823190602401602060405180830381865afa15801561055a573d6000803e3d6000fd5b505050506040513d601f19601f8201168201806040525081019061057e9190611526565b60405163a9059cbb60e01b81526001600160a01b038681166004830152602482018390529192509083169063a9059cbb906044016020604051808303816000875af11580156105d1573d6000803e3d6000fd5b505050506040513d601f19601f820116820180604052508101906105f5919061153f565b505050505050565b600061060881610a21565b6040514790600090339083908381818185875af1925050503d806000811461064c576040519150601f19603f3d011682016040523d82523d6000602084013e610651565b606091505b50509050806105015760405162461bcd60e51b815260206004820152600f60248201526e1dda5d1a191c985dc819985a5b1959608a1b60448201526064015b60405180910390fd5b60007f9f2df0fed2c77648de5860a4cc508cd0818c85b8b8a1ab4ceeef8d981c8956a66106c581610a21565b6104668484610c56565b6001600160a01b0381166000908152600860205260408120546103c0565b600060608060008060006060610701610c90565b610709610cbd565b60408051600080825260208201909252600f60f81b9b939a50919850469750309650945092509050565b6000918252602082815260408084206001600160a01b0393909316845291905290205460ff1690565b600061076781610a21565b6105017f9f2df0fed2c77648de5860a4cc508cd0818c85b8b8a1ab4ceeef8d981c8956a683610a2e565b6060600580546103d5906114ec565b60006001600160a01b03831633146107bd576107bd33848461094a565b6107c78383610cea565b50600192915050565b6000336104668185856109c2565b834211156108025760405163313c898160e11b815260048101859052602401610690565b60007f6e71edae12b1b97f4d1f60370fef10105fa2faae0126114a169c64845d6126c988888861084f8c6001600160a01b0316600090815260086020526040902080546001810190915590565b6040805160208101969096526001600160a01b0394851690860152929091166060840152608083015260a082015260c0810186905260e00160405160208183030381529060405280519060200120905060006108aa82610d20565b905060006108ba82878787610d4d565b9050896001600160a01b0316816001600160a01b031614610901576040516325c0072360e11b81526001600160a01b0380831660048301528b166024820152604401610690565b61090c8a8a8a61093d565b50505050505050505050565b60008281526020819052604090206001015461093381610a21565b6104b98383610beb565b6105018383836001610d7b565b6001600160a01b0383811660009081526002602090815260408083209386168352929052205460001981146104b957818110156109b357604051637dc7a0d960e11b81526001600160a01b03841660048201526024810182905260448101839052606401610690565b6104b984848484036000610d7b565b6001600160a01b0383166109ec57604051634b637e8f60e11b815260006004820152602401610690565b6001600160a01b038216610a165760405163ec442f0560e01b815260006004820152602401610690565b610501838383610e50565b610a2b8133610f7a565b50565b6000610a3a8383610733565b610ab8576000838152602081815260408083206001600160a01b03861684529091529020805460ff19166001179055610a703390565b6001600160a01b0316826001600160a01b0316847f2f8788117e7eff1d82e926ec794901d17c78024a50270940304540a733656f0d60405160405180910390a45060016103c0565b5060006103c0565b6000306001600160a01b037f000000000000000000000000000000000000000000000000000000000000000016148015610b1957507f000000000000000000000000000000000000000000000000000000000000000046145b15610b4357507f000000000000000000000000000000000000000000000000000000000000000090565b6104c9604080517f8b73c3c69bb8fe3d512ecc4cf759cc79239f7b179b0ffacaa9a75d522b39400f60208201527f0000000000000000000000000000000000000000000000000000000000000000918101919091527f000000000000000000000000000000000000000000000000000000000000000060608201524660808201523060a082015260009060c00160405160208183030381529060405280519060200120905090565b6000610bf78383610733565b15610ab8576000838152602081815260408083206001600160a01b0386168085529252808320805460ff1916905551339286917ff6391f5c32d9c69d2a47ea670b442974b53935d1edc7fd64eb21e047a839171b9190a45060016103c0565b6001600160a01b038216610c805760405163ec442f0560e01b815260006004820152602401610690565b610c8c60008383610e50565b5050565b60606104c97f00000000000000000000000000000000000000000000000000000000000000006006610fb3565b60606104c97f00000000000000000000000000000000000000000000000000000000000000006007610fb3565b6001600160a01b038216610d1457604051634b637e8f60e11b815260006004820152602401610690565b610c8c82600083610e50565b60006103c0610d2d610ac0565b8360405161190160f01b8152600281019290925260228201526042902090565b600080600080610d5f8888888861105e565b925092509250610d6f828261112d565b50909695505050505050565b6001600160a01b038416610da55760405163e602df0560e01b815260006004820152602401610690565b6001600160a01b038316610dcf57604051634a1406b160e11b815260006004820152602401610690565b6001600160a01b03808516600090815260026020908152604080832093871683529290522082905580156104b957826001600160a01b0316846001600160a01b03167f8c5be1e5ebec7d5bd14f71427d1e84f3dd0314c0f7b2291e5b200ac8c7c3b92584604051610e4291815260200190565b60405180910390a350505050565b6001600160a01b038316610e7b578060036000828254610e709190611561565b90915550610eed9050565b6001600160a01b03831660009081526001602052604090205481811015610ece5760405163391434e360e21b81526001600160a01b03851660048201526024810182905260448101839052606401610690565b6001600160a01b03841660009081526001602052604090209082900390555b6001600160a01b038216610f0957600380548290039055610f28565b6001600160a01b03821660009081526001602052604090208054820190555b816001600160a01b0316836001600160a01b03167fddf252ad1be2c89b69c2b068fc378daa952ba7f163c4a11628f55a4df523b3ef83604051610f6d91815260200190565b60405180910390a3505050565b610f848282610733565b610c8c5760405163e2517d3f60e01b81526001600160a01b038216600482015260248101839052604401610690565b606060ff8314610fcd57610fc6836111e6565b90506103c0565b818054610fd9906114ec565b80601f0160208091040260200160405190810160405280929190818152602001828054611005906114ec565b80156110525780601f1061102757610100808354040283529160200191611052565b820191906000526020600020905b81548152906001019060200180831161103557829003601f168201915b505050505090506103c0565b600080807f7fffffffffffffffffffffffffffffff5d576e7357a4501ddfe92f46681b20a08411156110995750600091506003905082611123565b604080516000808252602082018084528a905260ff891692820192909252606081018790526080810186905260019060a0016020604051602081039080840390855afa1580156110ed573d6000803e3d6000fd5b5050604051601f1901519150506001600160a01b03811661111957506000925060019150829050611123565b9250600091508190505b9450945094915050565b600082600381111561114157611141611582565b0361114a575050565b600182600381111561115e5761115e611582565b0361117c5760405163f645eedf60e01b815260040160405180910390fd5b600282600381111561119057611190611582565b036111b15760405163fce698f760e01b815260048101829052602401610690565b60038260038111156111c5576111c5611582565b03610c8c576040516335e2f38360e21b815260048101829052602401610690565b606060006111f383611225565b604080516020808252818301909252919250600091906020820181803683375050509182525060208101929092525090565b600060ff8216601f8111156103c057604051632cd44ac360e21b815260040160405180910390fd5b60006020828403121561125f57600080fd5b81356001600160e01b03198116811461127757600080fd5b9392505050565b6000815180845260005b818110156112a457602081850181015186830182015201611288565b506000602082860101526020601f19601f83011685010191505092915050565b602081526000611277602083018461127e565b80356001600160a01b03811681146112ee57600080fd5b919050565b6000806040838503121561130657600080fd5b61130f836112d7565b946020939093013593505050565b60008060006060848603121561133257600080fd5b61133b846112d7565b9250611349602085016112d7565b9150604084013590509250925092565b60006020828403121561136b57600080fd5b5035919050565b6000806040838503121561138557600080fd5b82359150611395602084016112d7565b90509250929050565b600080604083850312156113b157600080fd5b6113ba836112d7565b9150611395602084016112d7565b6000602082840312156113da57600080fd5b611277826112d7565b60ff60f81b881681526000602060e08184015261140360e084018a61127e565b8381036040850152611415818a61127e565b606085018990526001600160a01b038816608086015260a0850187905284810360c0860152855180825283870192509083019060005b818110156114675783518352928401929184019160010161144b565b50909c9b505050505050505050505050565b600080600080600080600060e0888a03121561149457600080fd5b61149d886112d7565b96506114ab602089016112d7565b95506040880135945060608801359350608088013560ff811681146114cf57600080fd5b9699959850939692959460a0840135945060c09093013592915050565b600181811c9082168061150057607f821691505b60208210810361152057634e487b7160e01b600052602260045260246000fd5b50919050565b60006020828403121561153857600080fd5b5051919050565b60006020828403121561155157600080fd5b8151801515811461127757600080fd5b808201808211156103c057634e487b7160e01b600052601160045260246000fd5b634e487b7160e01b600052602160045260246000fdfea26469706673582212208a1c73bc0eea9392622fca50e28b873fb0ebfe61051cdebfa8b76afd1ccdb86164736f6c63430008150033",
    "linkReferences": {}
  },
  "methodIdentifiers": {
    "DEFAULT_ADMIN_ROLE()": "a217fddf",
    "DOMAIN_SEPARATOR()": "3644e515",
    "allowance(address,address)": "dd62ed3e",
    "approve(address,uint256)": "095ea7b3",
    "balanceOf(address)": "70a08231",
    "burn(address,uint256)": "9dc29fac",
    "decimals()": "313ce567",
    "eip712Domain()": "84b0196e",
    "getRoleAdmin(bytes32)": "248a9ca3",
    "grantRole(bytes32,address)": "2f2ff15d",
    "hasRole(bytes32,address)": "91d14854",
    "mint(address,uint256)": "40c10f19",
    "name()": "06fdde03",
    "nonces(address)": "7ecebe00",
    "permit(address,address,uint256,uint256,uint8,bytes32,bytes32)": "d505accf",
    "renounceRole(bytes32,address)": "36568abe",
    "revokeRole(bytes32,address)": "d547741f",
    "setMinterRole(address)": "945d1229",
    "supportsInterface(bytes4)": "01ffc9a7",
    "symbol()": "95d89b41",
    "totalSupply()": "18160ddd",
    "transfer(address,uint256)": "a9059cbb",
    "transferFrom(address,address,uint256)": "23b872dd",
    "withdraw()": "3ccfd60b",
    "withdrawToken(address,address)": "3aeac4e1"
  },
  "id": 25
}