{
  "abi": [
    {
      "inputs": [
        {
          "internalType": "contract ERC20",
          "name": "_stableToken",
          "type": "address"
        },
        {
          "internalType": "address",
          "name": "_feedContract",
          "type": "address"
        }
      ],
      "stateMutability": "nonpayable",
      "type": "constructor"
    },
    {
      "inputs": [],
      "name": "AccessControlBadConfirmation",
      "type": "error"
    },
    {
      "inputs": [
        {
          "internalType": "address",
          "name": "account",
          "type": "address"
        },
        {
          "internalType": "bytes32",
          "name": "neededRole",
          "type": "bytes32"
        }
      ],
      "name": "AccessControlUnauthorizedAccount",
      "type": "error"
    },
    {
      "inputs": [
        {
          "internalType": "string",
          "name": "error",
          "type": "string"
        }
      ],
      "name": "NotLive",
      "type": "error"
    },
    {
      "inputs": [
        {
          "internalType": "string",
          "name": "error",
          "type": "string"
        }
      ],
      "name": "UnrecognizedParam",
      "type": "error"
    },
    {
      "inputs": [
        {
          "internalType": "string",
          "name": "error",
          "type": "string"
        }
      ],
      "name": "ZeroAddress",
      "type": "error"
    },
    {
      "anonymous": false,
      "inputs": [
        {
          "indexed": false,
          "internalType": "address",
          "name": "collateralAddress",
          "type": "address"
        }
      ],
      "name": "CollateralAdded",
      "type": "event"
    },
    {
      "anonymous": false,
      "inputs": [
        {
          "indexed": false,
          "internalType": "uint256",
          "name": "amount",
          "type": "uint256"
        },
        {
          "indexed": true,
          "internalType": "address",
          "name": "owner",
          "type": "address"
        },
        {
          "indexed": false,
          "internalType": "uint256",
          "name": "vaultId",
          "type": "uint256"
        }
      ],
      "name": "CollateralWithdrawn",
      "type": "event"
    },
    {
      "anonymous": false,
      "inputs": [
        {
          "indexed": true,
          "internalType": "bytes32",
          "name": "role",
          "type": "bytes32"
        },
        {
          "indexed": true,
          "internalType": "bytes32",
          "name": "previousAdminRole",
          "type": "bytes32"
        },
        {
          "indexed": true,
          "internalType": "bytes32",
          "name": "newAdminRole",
          "type": "bytes32"
        }
      ],
      "name": "RoleAdminChanged",
      "type": "event"
    },
    {
      "anonymous": false,
      "inputs": [
        {
          "indexed": true,
          "internalType": "bytes32",
          "name": "role",
          "type": "bytes32"
        },
        {
          "indexed": true,
          "internalType": "address",
          "name": "account",
          "type": "address"
        },
        {
          "indexed": true,
          "internalType": "address",
          "name": "sender",
          "type": "address"
        }
      ],
      "name": "RoleGranted",
      "type": "event"
    },
    {
      "anonymous": false,
      "inputs": [
        {
          "indexed": true,
          "internalType": "bytes32",
          "name": "role",
          "type": "bytes32"
        },
        {
          "indexed": true,
          "internalType": "address",
          "name": "account",
          "type": "address"
        },
        {
          "indexed": true,
          "internalType": "address",
          "name": "sender",
          "type": "address"
        }
      ],
      "name": "RoleRevoked",
      "type": "event"
    },
    {
      "anonymous": false,
      "inputs": [
        {
          "indexed": false,
          "internalType": "uint256",
          "name": "amount",
          "type": "uint256"
        },
        {
          "indexed": true,
          "internalType": "address",
          "name": "owner",
          "type": "address"
        },
        {
          "indexed": false,
          "internalType": "uint256",
          "name": "vaultId",
          "type": "uint256"
        }
      ],
      "name": "StableTokenWithdrawn",
      "type": "event"
    },
    {
      "anonymous": false,
      "inputs": [
        {
          "indexed": false,
          "internalType": "uint256",
          "name": "amount",
          "type": "uint256"
        },
        {
          "indexed": true,
          "internalType": "address",
          "name": "owner",
          "type": "address"
        },
        {
          "indexed": false,
          "internalType": "uint256",
          "name": "vaultId",
          "type": "uint256"
        }
      ],
      "name": "VaultCleansed",
      "type": "event"
    },
    {
      "anonymous": false,
      "inputs": [
        {
          "indexed": false,
          "internalType": "uint256",
          "name": "unlockedCollateral",
          "type": "uint256"
        },
        {
          "indexed": false,
          "internalType": "uint256",
          "name": "availableXNGN",
          "type": "uint256"
        },
        {
          "indexed": true,
          "internalType": "address",
          "name": "owner",
          "type": "address"
        },
        {
          "indexed": false,
          "internalType": "uint256",
          "name": "vaultId",
          "type": "uint256"
        }
      ],
      "name": "VaultCollateralized",
      "type": "event"
    },
    {
      "anonymous": false,
      "inputs": [
        {
          "indexed": false,
          "internalType": "uint256",
          "name": "vaultId",
          "type": "uint256"
        },
        {
          "indexed": true,
          "internalType": "address",
          "name": "owner",
          "type": "address"
        }
      ],
      "name": "VaultCreated",
      "type": "event"
    },
    {
      "inputs": [],
      "name": "DEFAULT_ADMIN_ROLE",
      "outputs": [
        {
          "internalType": "bytes32",
          "name": "",
          "type": "bytes32"
        }
      ],
      "stateMutability": "view",
      "type": "function"
    },
    {
      "inputs": [
        {
          "internalType": "address",
          "name": "",
          "type": "address"
        }
      ],
      "name": "availableXNGN",
      "outputs": [
        {
          "internalType": "uint256",
          "name": "",
          "type": "uint256"
        }
      ],
      "stateMutability": "view",
      "type": "function"
    },
    {
      "inputs": [],
      "name": "cage",
      "outputs": [],
      "stateMutability": "nonpayable",
      "type": "function"
    },
    {
      "inputs": [
        {
          "internalType": "address",
          "name": "collateralAddress",
          "type": "address"
        },
        {
          "internalType": "uint256",
          "name": "_vaultId",
          "type": "uint256"
        },
        {
          "internalType": "uint256",
          "name": "amount",
          "type": "uint256"
        },
        {
          "internalType": "address",
          "name": "caller",
          "type": "address"
        }
      ],
      "name": "cleanseVault",
      "outputs": [
        {
          "internalType": "bool",
          "name": "",
          "type": "bool"
        }
      ],
      "stateMutability": "nonpayable",
      "type": "function"
    },
    {
      "inputs": [
        {
          "internalType": "address",
          "name": "",
          "type": "address"
        }
      ],
      "name": "collateralMapping",
      "outputs": [
        {
          "internalType": "address",
          "name": "collateralAddress",
          "type": "address"
        },
        {
          "internalType": "uint256",
          "name": "TotalNormalisedDebt",
          "type": "uint256"
        },
        {
          "internalType": "uint256",
          "name": "TotalCollateralValue",
          "type": "uint256"
        },
        {
          "internalType": "uint256",
          "name": "liquidationThreshold",
          "type": "uint256"
        },
        {
          "internalType": "uint256",
          "name": "rate",
          "type": "uint256"
        },
        {
          "internalType": "uint256",
          "name": "price",
          "type": "uint256"
        },
        {
          "internalType": "uint256",
          "name": "debtCeiling",
          "type": "uint256"
        },
        {
          "internalType": "uint256",
          "name": "collateralDecimal",
          "type": "uint256"
        },
        {
          "internalType": "bool",
          "name": "exists",
          "type": "bool"
        }
      ],
      "stateMutability": "view",
      "type": "function"
    },
    {
      "inputs": [
        {
          "internalType": "uint256",
          "name": "amount",
          "type": "uint256"
        },
        {
          "internalType": "address",
          "name": "collateralAddress",
          "type": "address"
        },
        {
          "internalType": "uint256",
          "name": "_vaultId",
          "type": "uint256"
        },
        {
          "internalType": "address",
          "name": "caller",
          "type": "address"
        }
      ],
      "name": "collateralizeVault",
      "outputs": [
        {
          "internalType": "uint256",
          "name": "",
          "type": "uint256"
        },
        {
          "internalType": "uint256",
          "name": "",
          "type": "uint256"
        }
      ],
      "stateMutability": "nonpayable",
      "type": "function"
    },
    {
      "inputs": [
        {
          "internalType": "address",
          "name": "collateralAddress",
          "type": "address"
        },
        {
          "internalType": "uint256",
          "name": "rate",
          "type": "uint256"
        },
        {
          "internalType": "uint256",
          "name": "liquidationThreshold",
          "type": "uint256"
        },
        {
          "internalType": "uint256",
          "name": "debtCeiling",
          "type": "uint256"
        }
      ],
      "name": "createCollateralType",
      "outputs": [],
      "stateMutability": "nonpayable",
      "type": "function"
    },
    {
      "inputs": [
        {
          "internalType": "address",
          "name": "owner",
          "type": "address"
        },
        {
          "internalType": "address",
          "name": "_collateralAddress",
          "type": "address"
        }
      ],
      "name": "createVault",
      "outputs": [
        {
          "internalType": "uint256",
          "name": "",
          "type": "uint256"
        }
      ],
      "stateMutability": "nonpayable",
      "type": "function"
    },
    {
      "inputs": [],
      "name": "debt",
      "outputs": [
        {
          "internalType": "uint256",
          "name": "",
          "type": "uint256"
        }
      ],
      "stateMutability": "view",
      "type": "function"
    },
    {
      "inputs": [
        {
          "internalType": "address",
          "name": "",
          "type": "address"
        }
      ],
      "name": "firstVault",
      "outputs": [
        {
          "internalType": "uint256",
          "name": "",
          "type": "uint256"
        }
      ],
      "stateMutability": "view",
      "type": "function"
    },
    {
      "inputs": [
        {
          "internalType": "address",
          "name": "collateralAddress",
          "type": "address"
        }
      ],
      "name": "getCollateralData",
      "outputs": [
        {
          "internalType": "uint256",
          "name": "",
          "type": "uint256"
        },
        {
          "internalType": "uint256",
          "name": "",
          "type": "uint256"
        },
        {
          "internalType": "uint256",
          "name": "",
          "type": "uint256"
        },
        {
          "internalType": "uint256",
          "name": "",
          "type": "uint256"
        },
        {
          "internalType": "uint256",
          "name": "",
          "type": "uint256"
        },
        {
          "internalType": "uint256",
          "name": "",
          "type": "uint256"
        }
      ],
      "stateMutability": "view",
      "type": "function"
    },
    {
      "inputs": [
        {
          "internalType": "bytes32",
          "name": "role",
          "type": "bytes32"
        }
      ],
      "name": "getRoleAdmin",
      "outputs": [
        {
          "internalType": "bytes32",
          "name": "",
          "type": "bytes32"
        }
      ],
      "stateMutability": "view",
      "type": "function"
    },
    {
      "inputs": [
        {
          "internalType": "address",
          "name": "owner",
          "type": "address"
        }
      ],
      "name": "getVaultsForOwner",
      "outputs": [
        {
          "internalType": "uint256[]",
          "name": "ids",
          "type": "uint256[]"
        }
      ],
      "stateMutability": "view",
      "type": "function"
    },
    {
      "inputs": [
        {
          "internalType": "bytes32",
          "name": "role",
          "type": "bytes32"
        },
        {
          "internalType": "address",
          "name": "account",
          "type": "address"
        }
      ],
      "name": "grantRole",
      "outputs": [],
      "stateMutability": "nonpayable",
      "type": "function"
    },
    {
      "inputs": [
        {
          "internalType": "bytes32",
          "name": "role",
          "type": "bytes32"
        },
        {
          "internalType": "address",
          "name": "account",
          "type": "address"
        }
      ],
      "name": "hasRole",
      "outputs": [
        {
          "internalType": "bool",
          "name": "",
          "type": "bool"
        }
      ],
      "stateMutability": "view",
      "type": "function"
    },
    {
      "inputs": [
        {
          "internalType": "address",
          "name": "",
          "type": "address"
        }
      ],
      "name": "lastVault",
      "outputs": [
        {
          "internalType": "uint256",
          "name": "",
          "type": "uint256"
        }
      ],
      "stateMutability": "view",
      "type": "function"
    },
    {
      "inputs": [
        {
          "internalType": "uint256",
          "name": "",
          "type": "uint256"
        }
      ],
      "name": "list",
      "outputs": [
        {
          "internalType": "uint256",
          "name": "prev",
          "type": "uint256"
        },
        {
          "internalType": "uint256",
          "name": "next",
          "type": "uint256"
        }
      ],
      "stateMutability": "view",
      "type": "function"
    },
    {
      "inputs": [],
      "name": "live",
      "outputs": [
        {
          "internalType": "uint256",
          "name": "",
          "type": "uint256"
        }
      ],
      "stateMutability": "view",
      "type": "function"
    },
    {
      "inputs": [
        {
          "internalType": "bytes32",
          "name": "role",
          "type": "bytes32"
        },
        {
          "internalType": "address",
          "name": "callerConfirmation",
          "type": "address"
        }
      ],
      "name": "renounceRole",
      "outputs": [],
      "stateMutability": "nonpayable",
      "type": "function"
    },
    {
      "inputs": [
        {
          "internalType": "bytes32",
          "name": "role",
          "type": "bytes32"
        },
        {
          "internalType": "address",
          "name": "account",
          "type": "address"
        }
      ],
      "name": "revokeRole",
      "outputs": [],
      "stateMutability": "nonpayable",
      "type": "function"
    },
    {
      "inputs": [
        {
          "internalType": "address",
          "name": "_universalAdapter",
          "type": "address"
        }
      ],
      "name": "setUniversalAdapter",
      "outputs": [],
      "stateMutability": "nonpayable",
      "type": "function"
    },
    {
      "inputs": [],
      "name": "stableToken",
      "outputs": [
        {
          "internalType": "contract ERC20",
          "name": "",
          "type": "address"
        }
      ],
      "stateMutability": "view",
      "type": "function"
    },
    {
      "inputs": [
        {
          "internalType": "bytes4",
          "name": "interfaceId",
          "type": "bytes4"
        }
      ],
      "name": "supportsInterface",
      "outputs": [
        {
          "internalType": "bool",
          "name": "",
          "type": "bool"
        }
      ],
      "stateMutability": "view",
      "type": "function"
    },
    {
      "inputs": [],
      "name": "universalAdapter",
      "outputs": [
        {
          "internalType": "address",
          "name": "",
          "type": "address"
        }
      ],
      "stateMutability": "view",
      "type": "function"
    },
    {
      "inputs": [
        {
          "internalType": "address",
          "name": "_collateralAddress",
          "type": "address"
        },
        {
          "internalType": "bytes32",
          "name": "param",
          "type": "bytes32"
        },
        {
          "internalType": "uint256",
          "name": "data",
          "type": "uint256"
        }
      ],
      "name": "updateCollateralData",
      "outputs": [],
      "stateMutability": "nonpayable",
      "type": "function"
    },
    {
      "inputs": [
        {
          "internalType": "address",
          "name": "_feedContract",
          "type": "address"
        }
      ],
      "name": "updateFeedContract",
      "outputs": [],
      "stateMutability": "nonpayable",
      "type": "function"
    },
    {
      "inputs": [
        {
          "internalType": "address",
          "name": "_collateralAddress",
          "type": "address"
        },
        {
          "internalType": "uint256",
          "name": "price",
          "type": "uint256"
        }
      ],
      "name": "updatePrice",
      "outputs": [],
      "stateMutability": "nonpayable",
      "type": "function"
    },
    {
      "inputs": [
        {
          "internalType": "address",
          "name": "",
          "type": "address"
        }
      ],
      "name": "vaultCountMapping",
      "outputs": [
        {
          "internalType": "uint256",
          "name": "",
          "type": "uint256"
        }
      ],
      "stateMutability": "view",
      "type": "function"
    },
    {
      "inputs": [],
      "name": "vaultId",
      "outputs": [
        {
          "internalType": "uint256",
          "name": "",
          "type": "uint256"
        }
      ],
      "stateMutability": "view",
      "type": "function"
    },
    {
      "inputs": [
        {
          "internalType": "uint256",
          "name": "",
          "type": "uint256"
        }
      ],
      "name": "vaultMapping",
      "outputs": [
        {
          "internalType": "address",
          "name": "owner",
          "type": "address"
        },
        {
          "internalType": "uint256",
          "name": "lockedCollateral",
          "type": "uint256"
        },
        {
          "internalType": "uint256",
          "name": "unlockedCollateral",
          "type": "uint256"
        },
        {
          "internalType": "uint256",
          "name": "normalisedDebt",
          "type": "uint256"
        },
        {
          "internalType": "enum IVault.VaultStateEnum",
          "name": "vaultState",
          "type": "uint8"
        }
      ],
      "stateMutability": "view",
      "type": "function"
    },
    {
      "inputs": [
        {
          "internalType": "address",
          "name": "collateralAddress",
          "type": "address"
        },
        {
          "internalType": "uint256",
          "name": "_vaultId",
          "type": "uint256"
        },
        {
          "internalType": "uint256",
          "name": "amount",
          "type": "uint256"
        },
        {
          "internalType": "address",
          "name": "caller",
          "type": "address"
        }
      ],
      "name": "withdrawUnlockedCollateral",
      "outputs": [
        {
          "internalType": "bool",
          "name": "",
          "type": "bool"
        }
      ],
      "stateMutability": "nonpayable",
      "type": "function"
    },
    {
      "inputs": [
        {
          "internalType": "address",
          "name": "collateralAddress",
          "type": "address"
        },
        {
          "internalType": "uint256",
          "name": "_vaultId",
          "type": "uint256"
        },
        {
          "internalType": "uint256",
          "name": "amount",
          "type": "uint256"
        },
        {
          "internalType": "address",
          "name": "caller",
          "type": "address"
        }
      ],
      "name": "withdrawXNGN",
      "outputs": [
        {
          "internalType": "bool",
          "name": "",
          "type": "bool"
        }
      ],
      "stateMutability": "nonpayable",
      "type": "function"
    }
  ],
  "bytecode": {
    "object": "0x60806040523480156200001157600080fd5b5060405162001c4e38038062001c4e833981016040819052620000349162000163565b620000416000336200009b565b506200006e7fd30e44b6367b3271655a8fdafcfc17a83191efab29a626ed0c76e1f42d65e332826200009b565b50506001600255600480546001600160a01b0319166001600160a01b0392909216919091179055620001a2565b6000828152602081815260408083206001600160a01b038516845290915281205460ff1662000140576000838152602081815260408083206001600160a01b03861684529091529020805460ff19166001179055620000f73390565b6001600160a01b0316826001600160a01b0316847f2f8788117e7eff1d82e926ec794901d17c78024a50270940304540a733656f0d60405160405180910390a450600162000144565b5060005b92915050565b6001600160a01b03811681146200016057600080fd5b50565b600080604083850312156200017757600080fd5b825162000184816200014a565b602084015190925062000197816200014a565b809150509250929050565b611a9c80620001b26000396000f3fe608060405234801561001057600080fd5b50600436106101f05760003560e01c806386cdd4e01161010f578063a9d75b2b116100a2578063f3157d6411610071578063f3157d64146105cb578063f866376b146105eb578063fe47cde7146105fe578063ffa80b8a1461061157600080fd5b8063a9d75b2b146104c2578063c665471f146104ed578063cc92d31c146105a5578063d547741f146105b857600080fd5b80639697bfe7116100de5780639697bfe71461047457806397f40e6114610487578063a06c6881146104a7578063a217fddf146104ba57600080fd5b806386cdd4e0146103c657806391d14854146104455780639517950e14610458578063957aa58c1461046b57600080fd5b806343e51258116101875780634b32c444116101565780634b32c4441461034f5780635ac178571461036f578063692450091461038257806380c9419e1461038a57600080fd5b806343e51258146102f65780634522fa8514610316578063457972de1461032957806346e650e31461033c57600080fd5b80632f2c4f38116101c35780632f2c4f381461026c5780632f2ff15d146102c757806333194c0a146102da57806336568abe146102e357600080fd5b806301ffc9a7146101f55780630dca59c11461021d578063248055e514610234578063248a9ca314610249575b600080fd5b6102086102033660046115ad565b610631565b60405190151581526020015b60405180910390f35b61022660015481565b604051908152602001610214565b6102476102423660046115f3565b610668565b005b610226610257366004611626565b60009081526020819052604090206001015490565b6102b661027a366004611626565b600760205260009081526040902080546001820154600283015460038401546004909401546001600160a01b0390931693919290919060ff1685565b604051610214959493929190611655565b6102476102d53660046116a8565b610779565b61022660035481565b6102476102f13660046116a8565b6107a4565b6102266103043660046116d4565b600c6020526000908152604090205481565b6102476103243660046116d4565b6107dc565b6102476103373660046116ef565b610834565b61024761034a366004611719565b6108a1565b61022661035d3660046116d4565b60096020526000908152604090205481565b61024761037d3660046116d4565b6109c5565b6102476109f3565b6103b1610398366004611626565b600a602052600090815260409020805460019091015482565b60408051928352602083019190915201610214565b6104186103d43660046116d4565b6001600160a01b0316600090815260066020819052604090912060018101546002820154600483015460058401549484015460079094015492959194909390929091565b604080519687526020870195909552938501929092526060840152608083015260a082015260c001610214565b6102086104533660046116a8565b610a06565b610208610466366004611752565b610a2f565b61022660025481565b6103b1610482366004611798565b610c1c565b6102266104953660046116d4565b600b6020526000908152604090205481565b6102086104b5366004611752565b610da7565b610226600081565b6004546104d5906001600160a01b031681565b6040516001600160a01b039091168152602001610214565b6105556104fb3660046116d4565b60066020819052600091825260409091208054600182015460028301546003840154600485015460058601549686015460078701546008909701546001600160a01b03909616979496939592949193919290919060ff1689565b604080516001600160a01b03909a168a5260208a0198909852968801959095526060870193909352608086019190915260a085015260c084015260e0830152151561010082015261012001610214565b6102266105b33660046117d3565b610f03565b6102476105c63660046116a8565b611158565b6102266105d93660046116d4565b60086020526000908152604090205481565b6102086105f9366004611752565b61117d565b6005546104d5906001600160a01b031681565b61062461061f3660046116d4565b611312565b60405161021491906117fd565b60006001600160e01b03198216637965db0b60e01b148061066257506301ffc9a760e01b6001600160e01b03198316145b92915050565b6002546001146106945760405163a1875fdb60e01b815260040161068b90611841565b60405180910390fd5b600061069f81611405565b6001600160a01b03841660009081526006602052604090206a646562744365696c696e6760a81b8490036106d95760068101839055610772565b83637261746560e01b036106f35760048101839055610772565b837018dbdb1b185d195c985b111958da5b585b607a1b0361071a5760078101839055610772565b604051630f69b82560e31b815260206004820152602660248201527f436f72655661756c742f636f6c6c61746572616c206461746120756e7265636f60448201526519db9a5e995960d21b606482015260840161068b565b5050505050565b60008281526020819052604090206001015461079481611405565b61079e8383611412565b50505050565b6001600160a01b03811633146107cd5760405163334bd91960e11b815260040160405180910390fd5b6107d782826114a4565b505050565b6002546001146107ff5760405163a1875fdb60e01b815260040161068b90611841565b600061080a81611405565b6107d77fd30e44b6367b3271655a8fdafcfc17a83191efab29a626ed0c76e1f42d65e33283611412565b6002546001146108575760405163a1875fdb60e01b815260040161068b90611841565b7fd30e44b6367b3271655a8fdafcfc17a83191efab29a626ed0c76e1f42d65e33261088181611405565b506001600160a01b03909116600090815260066020526040902060050155565b6002546001146108c45760405163a1875fdb60e01b815260040161068b90611841565b60006108cf81611405565b6001600160a01b03851660008181526006602081815260409283902080546001600160a01b0319168517815560048082018a905560038201899055928101879055835163313ce56760e01b8152935190949363313ce567938181019392918290030181865afa158015610946573d6000803e3d6000fd5b505050506040513d601f19601f8201168201806040525081019061096a919061186d565b60ff16600782015560088101805460ff191660011790556040516001600160a01b03871681527f7db05e63d635a68c62fd7fd8f3107ae8ab584a383e102d1bd8a40f4c977e465f9060200160405180910390a1505050505050565b60006109d081611405565b50600580546001600160a01b0319166001600160a01b0392909216919091179055565b60006109fe81611405565b506000600255565b6000918252602082815260408084206001600160a01b0393909316845291905290205460ff1690565b6000600254600114610a545760405163a1875fdb60e01b815260040161068b90611841565b6000848152600760205260409020546001600160a01b039081169083168114610a8f5760405162461bcd60e51b815260040161068b90611890565b60008581526007602081815260408084206001600160a01b038b1685526006909252832091820154909290610ac890889060129061150f565b90506000826005015482610adc91906118d2565b6001600160a01b0386166000908152600c6020526040812080549293508a92909190610b099084906118f4565b9250508190555080846002016000828254610b2491906118f4565b9250508190555080846001016000828254610b3f9190611907565b9250508190555087846003016000828254610b5a9190611907565b90915550506003840154600184018054600090610b78908490611907565b925050819055508760016000828254610b919190611907565b9091555060019050600485015460ff166002811115610bb257610bb261163f565b14610bc75760048401805460ff191660011790555b60408051898152602081018b90526001600160a01b038716917f6bf99917cf560d0648b68c70617755603f7e9db6e6b5f872a061fc601a3183a691015b60405180910390a25060019998505050505050505050565b600080600254600114610c425760405163a1875fdb60e01b815260040161068b90611841565b6000848152600760205260409020546001600160a01b039081169084168114610c7d5760405162461bcd60e51b815260040161068b90611890565b60008581526007602090815260408083206001600160a01b038a16845260069092528220600282018054929391928b9290610cb9908490611907565b9250508190555088816002016000828254610cd49190611907565b925050819055506000610ced8a8360070154601261150f565b90506000826005015482610d01919061191a565b6001600160a01b0386166000908152600c602052604081205491925090610d29908390611907565b6001600160a01b0387166000818152600c6020908152604091829020849055600289015482519081529081018490529081018d9052919250907ff6ff325f711e255a58e969eb5ad1f1296a58fea925e201bff9e6e0980e0dceee9060600160405180910390a2600290940154939b939a509298505050505050505050565b6000600254600114610dcc5760405163a1875fdb60e01b815260040161068b90611841565b6000848152600760205260409020546001600160a01b039081169083168114610e075760405162461bcd60e51b815260040161068b90611890565b60008581526007602090815260408083206001600160a01b038a1684526006909252822060028201805492939192889290610e439084906118f4565b9250508190555085816002016000828254610e5e91906118f4565b90915550506005810154600090610e75908861191a565b6001600160a01b0385166000908152600c6020526040812080549293508392909190610ea29084906118f4565b90915550506003546040516001600160a01b038616917f7c5e5cb62e5ed3caf3764e4b0afedfedef533e27809d43367799787ad2abcd4191610eec918b8252602082015260400190565b60405180910390a250600198975050505050505050565b6000600254600114610f285760405163a1875fdb60e01b815260040161068b90611841565b6001600160a01b038316610f7f5760405163eac0d38960e01b815260206004820181905260248201527f436f72655661756c742f6f776e65722061646472657373206973207a65726f20604482015260640161068b565b6001600160a01b03821660009081526006602052604090206008015460ff16610ffa57604051630f69b82560e31b815260206004820152602660248201527f436f72655661756c742f636f6c6c61746572616c206e616d6520756e7265636f60448201526519db9a5e995960d21b606482015260840161068b565b600060036000815461100b90611931565b9182905550600081815260076020908152604080832060048101805460ff1916905580546001600160a01b0319166001600160a01b038a169081179091558352600b90915281208054929350600192909190611068908490611907565b90915550506001600160a01b03841660009081526008602052604081205490036110a8576001600160a01b03841660009081526008602052604090208190555b6001600160a01b038416600090815260096020526040902054156110fc576001600160a01b038416600090815260096020908152604080832054848452600a90925280832082905590825290206001018190555b6001600160a01b03841660008181526009602052604090819020839055517fbf3e9c93de94306b70ac5b9411edf475545815333bf651b894b9eada6482c594906111499084815260200190565b60405180910390a29392505050565b60008281526020819052604090206001015461117381611405565b61079e83836114a4565b60006002546001146111a25760405163a1875fdb60e01b815260040161068b90611841565b6000848152600760205260409020546001600160a01b0390811690831681146111dd5760405162461bcd60e51b815260040161068b90611890565b60008581526007602081815260408084206001600160a01b038b168552600690925283209182015490929061121690889060129061150f565b9050600082600501548261122a91906118d2565b6001600160a01b0386166000908152600c6020526040812080549293508a92909190611257908490611907565b925050819055508084600101600082825461127291906118f4565b925050819055508084600201600082825461128d9190611907565b92505081905550878460030160008282546112a891906118f4565b909155505060048401805460ff1916600217905560038401546001546112ce91906118f4565b60015560408051898152602081018b90526001600160a01b038716917f2b1124ac2b52e0ec133f1e49475defdc59373702ab39bc2c089910548573674d9101610c04565b6001600160a01b0381166000908152600b60205260409020546060908067ffffffffffffffff8111156113475761134761194a565b604051908082528060200260200182016040528015611370578160200160208202803683370190505b506001600160a01b038416600090815260086020526040812054919350905b80156113fd57808483815181106113a8576113a8611960565b6020026020010181815250506113e7816000908152600a6020908152604091829020825180840190935280548084526001909101549290910182905291565b91508290506113f581611931565b92505061138f565b505050919050565b61140f8133611570565b50565b600061141e8383610a06565b61149c576000838152602081815260408083206001600160a01b03861684529091529020805460ff191660011790556114543390565b6001600160a01b0316826001600160a01b0316847f2f8788117e7eff1d82e926ec794901d17c78024a50270940304540a733656f0d60405160405180910390a4506001610662565b506000610662565b60006114b08383610a06565b1561149c576000838152602081815260408083206001600160a01b0386168085529252808320805460ff1916905551339286917ff6391f5c32d9c69d2a47ea670b442974b53935d1edc7fd64eb21e047a839171b9190a4506001610662565b60008183111561153f5761152382846118f4565b61152e90600a611a5a565b61153890856118d2565b9050611569565b818310156115665761155183836118f4565b61155c90600a611a5a565b611538908561191a565b50825b9392505050565b61157a8282610a06565b6115a95760405163e2517d3f60e01b81526001600160a01b03821660048201526024810183905260440161068b565b5050565b6000602082840312156115bf57600080fd5b81356001600160e01b03198116811461156957600080fd5b80356001600160a01b03811681146115ee57600080fd5b919050565b60008060006060848603121561160857600080fd5b611611846115d7565b95602085013595506040909401359392505050565b60006020828403121561163857600080fd5b5035919050565b634e487b7160e01b600052602160045260246000fd5b6001600160a01b038616815260208101859052604081018490526060810183905260a081016003831061169857634e487b7160e01b600052602160045260246000fd5b8260808301529695505050505050565b600080604083850312156116bb57600080fd5b823591506116cb602084016115d7565b90509250929050565b6000602082840312156116e657600080fd5b611569826115d7565b6000806040838503121561170257600080fd5b61170b836115d7565b946020939093013593505050565b6000806000806080858703121561172f57600080fd5b611738856115d7565b966020860135965060408601359560600135945092505050565b6000806000806080858703121561176857600080fd5b611771856115d7565b9350602085013592506040850135915061178d606086016115d7565b905092959194509250565b600080600080608085870312156117ae57600080fd5b843593506117be602086016115d7565b92506040850135915061178d606086016115d7565b600080604083850312156117e657600080fd5b6117ef836115d7565b91506116cb602084016115d7565b6020808252825182820181905260009190848201906040850190845b8181101561183557835183529284019291840191600101611819565b50909695505050505050565b602080825260129082015271436f72655661756c742f6e6f742d6c69766560701b604082015260600190565b60006020828403121561187f57600080fd5b815160ff8116811461156957600080fd5b6020808252601290820152711b9bdd081bdddb995c881bd9881d985d5b1d60721b604082015260600190565b634e487b7160e01b600052601160045260246000fd5b6000826118ef57634e487b7160e01b600052601260045260246000fd5b500490565b81810381811115610662576106626118bc565b80820180821115610662576106626118bc565b8082028115828204841417610662576106626118bc565b600060018201611943576119436118bc565b5060010190565b634e487b7160e01b600052604160045260246000fd5b634e487b7160e01b600052603260045260246000fd5b600181815b808511156119b1578160001904821115611997576119976118bc565b808516156119a457918102915b93841c939080029061197b565b509250929050565b6000826119c857506001610662565b816119d557506000610662565b81600181146119eb57600281146119f557611a11565b6001915050610662565b60ff841115611a0657611a066118bc565b50506001821b610662565b5060208310610133831016604e8410600b8410161715611a34575081810a610662565b611a3e8383611976565b8060001904821115611a5257611a526118bc565b029392505050565b600061156983836119b956fea264697066735822122010adbb9726254daa2372ed016102956cc15297d016739238e075885f698a855e64736f6c63430008150033",
    "linkReferences": {}
  },
  "methodIdentifiers": {
    "DEFAULT_ADMIN_ROLE()": "a217fddf",
    "availableXNGN(address)": "43e51258",
    "cage()": "69245009",
    "cleanseVault(address,uint256,uint256,address)": "f866376b",
    "collateralMapping(address)": "c665471f",
    "collateralizeVault(uint256,address,uint256,address)": "9697bfe7",
    "createCollateralType(address,uint256,uint256,uint256)": "46e650e3",
    "createVault(address,address)": "cc92d31c",
    "debt()": "0dca59c1",
    "firstVault(address)": "f3157d64",
    "getCollateralData(address)": "86cdd4e0",
    "getRoleAdmin(bytes32)": "248a9ca3",
    "getVaultsForOwner(address)": "ffa80b8a",
    "grantRole(bytes32,address)": "2f2ff15d",
    "hasRole(bytes32,address)": "91d14854",
    "lastVault(address)": "4b32c444",
    "list(uint256)": "80c9419e",
    "live()": "957aa58c",
    "renounceRole(bytes32,address)": "36568abe",
    "revokeRole(bytes32,address)": "d547741f",
    "setUniversalAdapter(address)": "5ac17857",
    "stableToken()": "a9d75b2b",
    "supportsInterface(bytes4)": "01ffc9a7",
    "universalAdapter()": "fe47cde7",
    "updateCollateralData(address,bytes32,uint256)": "248055e5",
    "updateFeedContract(address)": "4522fa85",
    "updatePrice(address,uint256)": "457972de",
    "vaultCountMapping(address)": "97f40e61",
    "vaultId()": "33194c0a",
    "vaultMapping(uint256)": "2f2c4f38",
    "withdrawUnlockedCollateral(address,uint256,uint256,address)": "a06c6881",
    "withdrawXNGN(address,uint256,uint256,address)": "9517950e"
  },
  "id": 13
}