{
  "abi": [
    {
      "inputs": [
        {
          "internalType": "contract Currency",
          "name": "_currencyToken",
          "type": "address"
        }
      ],
      "stateMutability": "nonpayable",
      "type": "constructor"
    },
    {
      "inputs": [],
      "name": "AccessControlBadConfirmation",
      "type": "error"
    },
    {
      "inputs": [
        {
          "internalType": "address",
          "name": "account",
          "type": "address"
        },
        {
          "internalType": "bytes32",
          "name": "neededRole",
          "type": "bytes32"
        }
      ],
      "name": "AccessControlUnauthorizedAccount",
      "type": "error"
    },
    {
      "inputs": [
        {
          "internalType": "address",
          "name": "target",
          "type": "address"
        }
      ],
      "name": "AddressEmptyCode",
      "type": "error"
    },
    {
      "inputs": [
        {
          "internalType": "address",
          "name": "account",
          "type": "address"
        }
      ],
      "name": "AddressInsufficientBalance",
      "type": "error"
    },
    {
      "inputs": [],
      "name": "BadHealthFactor",
      "type": "error"
    },
    {
      "inputs": [],
      "name": "CollateralAlreadyExists",
      "type": "error"
    },
    {
      "inputs": [],
      "name": "FailedInnerCall",
      "type": "error"
    },
    {
      "inputs": [],
      "name": "Paused",
      "type": "error"
    },
    {
      "inputs": [],
      "name": "PositionIsSafe",
      "type": "error"
    },
    {
      "inputs": [
        {
          "internalType": "address",
          "name": "token",
          "type": "address"
        }
      ],
      "name": "SafeERC20FailedOperation",
      "type": "error"
    },
    {
      "inputs": [],
      "name": "TotalUserCollateralBelowFloor",
      "type": "error"
    },
    {
      "inputs": [],
      "name": "UnrecognizedParam",
      "type": "error"
    },
    {
      "inputs": [],
      "name": "ZeroAddress",
      "type": "error"
    },
    {
      "inputs": [],
      "name": "ZeroCollateral",
      "type": "error"
    },
    {
      "anonymous": false,
      "inputs": [
        {
          "indexed": false,
          "internalType": "address",
          "name": "collateralAddress",
          "type": "address"
        }
      ],
      "name": "CollateralAdded",
      "type": "event"
    },
    {
      "anonymous": false,
      "inputs": [
        {
          "indexed": true,
          "internalType": "address",
          "name": "owner",
          "type": "address"
        },
        {
          "indexed": false,
          "internalType": "uint256",
          "name": "amount",
          "type": "uint256"
        }
      ],
      "name": "CollateralWithdrawn",
      "type": "event"
    },
    {
      "anonymous": false,
      "inputs": [
        {
          "indexed": true,
          "internalType": "bytes32",
          "name": "role",
          "type": "bytes32"
        },
        {
          "indexed": true,
          "internalType": "bytes32",
          "name": "previousAdminRole",
          "type": "bytes32"
        },
        {
          "indexed": true,
          "internalType": "bytes32",
          "name": "newAdminRole",
          "type": "bytes32"
        }
      ],
      "name": "RoleAdminChanged",
      "type": "event"
    },
    {
      "anonymous": false,
      "inputs": [
        {
          "indexed": true,
          "internalType": "bytes32",
          "name": "role",
          "type": "bytes32"
        },
        {
          "indexed": true,
          "internalType": "address",
          "name": "account",
          "type": "address"
        },
        {
          "indexed": true,
          "internalType": "address",
          "name": "sender",
          "type": "address"
        }
      ],
      "name": "RoleGranted",
      "type": "event"
    },
    {
      "anonymous": false,
      "inputs": [
        {
          "indexed": true,
          "internalType": "bytes32",
          "name": "role",
          "type": "bytes32"
        },
        {
          "indexed": true,
          "internalType": "address",
          "name": "account",
          "type": "address"
        },
        {
          "indexed": true,
          "internalType": "address",
          "name": "sender",
          "type": "address"
        }
      ],
      "name": "RoleRevoked",
      "type": "event"
    },
    {
      "anonymous": false,
      "inputs": [
        {
          "indexed": true,
          "internalType": "address",
          "name": "owner",
          "type": "address"
        },
        {
          "indexed": false,
          "internalType": "uint256",
          "name": "amount",
          "type": "uint256"
        }
      ],
      "name": "StableTokenWithdrawn",
      "type": "event"
    },
    {
      "anonymous": false,
      "inputs": [
        {
          "indexed": true,
          "internalType": "address",
          "name": "owner",
          "type": "address"
        },
        {
          "indexed": false,
          "internalType": "uint256",
          "name": "unlockedCollateral",
          "type": "uint256"
        }
      ],
      "name": "VaultCollateralized",
      "type": "event"
    },
    {
      "inputs": [],
      "name": "CURRENCY_TOKEN",
      "outputs": [
        {
          "internalType": "contract Currency",
          "name": "",
          "type": "address"
        }
      ],
      "stateMutability": "view",
      "type": "function"
    },
    {
      "inputs": [],
      "name": "DEFAULT_ADMIN_ROLE",
      "outputs": [
        {
          "internalType": "bytes32",
          "name": "",
          "type": "bytes32"
        }
      ],
      "stateMutability": "view",
      "type": "function"
    },
    {
      "inputs": [
        {
          "internalType": "contract ERC20",
          "name": "_collateralToken",
          "type": "address"
        },
        {
          "internalType": "address",
          "name": "_to",
          "type": "address"
        },
        {
          "internalType": "uint256",
          "name": "_amount",
          "type": "uint256"
        }
      ],
      "name": "borrowCurrency",
      "outputs": [],
      "stateMutability": "nonpayable",
      "type": "function"
    },
    {
      "inputs": [
        {
          "internalType": "contract ERC20",
          "name": "_collateralToken",
          "type": "address"
        },
        {
          "internalType": "address",
          "name": "_owner",
          "type": "address"
        }
      ],
      "name": "checkHealthFactor",
      "outputs": [
        {
          "internalType": "uint256",
          "name": "",
          "type": "uint256"
        }
      ],
      "stateMutability": "view",
      "type": "function"
    },
    {
      "inputs": [
        {
          "internalType": "contract ERC20",
          "name": "",
          "type": "address"
        }
      ],
      "name": "collateralMapping",
      "outputs": [
        {
          "internalType": "uint256",
          "name": "totalDepositedCollateral",
          "type": "uint256"
        },
        {
          "internalType": "uint256",
          "name": "totalBorrowedAmount",
          "type": "uint256"
        },
        {
          "internalType": "uint256",
          "name": "liquidationThreshold",
          "type": "uint256"
        },
        {
          "internalType": "uint256",
          "name": "liquidationBonus",
          "type": "uint256"
        },
        {
          "internalType": "uint256",
          "name": "rate",
          "type": "uint256"
        },
        {
          "internalType": "uint256",
          "name": "price",
          "type": "uint256"
        },
        {
          "internalType": "uint256",
          "name": "debtCeiling",
          "type": "uint256"
        },
        {
          "internalType": "uint256",
          "name": "collateralFloorPerPosition",
          "type": "uint256"
        },
        {
          "internalType": "uint256",
          "name": "additionalCollateralPercision",
          "type": "uint256"
        },
        {
          "internalType": "bool",
          "name": "exists",
          "type": "bool"
        }
      ],
      "stateMutability": "view",
      "type": "function"
    },
    {
      "inputs": [
        {
          "internalType": "contract ERC20",
          "name": "_collateralToken",
          "type": "address"
        },
        {
          "internalType": "uint256",
          "name": "_rate",
          "type": "uint256"
        },
        {
          "internalType": "uint256",
          "name": "_liquidationThreshold",
          "type": "uint256"
        },
        {
          "internalType": "uint256",
          "name": "_liquidationBonus",
          "type": "uint256"
        },
        {
          "internalType": "uint256",
          "name": "_debtCeiling",
          "type": "uint256"
        },
        {
          "internalType": "uint256",
          "name": "_collateralFloorPerPosition",
          "type": "uint256"
        }
      ],
      "name": "createCollateralType",
      "outputs": [],
      "stateMutability": "nonpayable",
      "type": "function"
    },
    {
      "inputs": [],
      "name": "debt",
      "outputs": [
        {
          "internalType": "uint256",
          "name": "",
          "type": "uint256"
        }
      ],
      "stateMutability": "view",
      "type": "function"
    },
    {
      "inputs": [
        {
          "internalType": "contract ERC20",
          "name": "_collateralToken",
          "type": "address"
        },
        {
          "internalType": "uint256",
          "name": "_amount",
          "type": "uint256"
        }
      ],
      "name": "depositCollateral",
      "outputs": [],
      "stateMutability": "nonpayable",
      "type": "function"
    },
    {
      "inputs": [
        {
          "internalType": "contract ERC20",
          "name": "_collateralToken",
          "type": "address"
        },
        {
          "internalType": "address",
          "name": "_owner",
          "type": "address"
        }
      ],
      "name": "getCurrencyValueOfCollateral",
      "outputs": [
        {
          "internalType": "uint256",
          "name": "",
          "type": "uint256"
        }
      ],
      "stateMutability": "view",
      "type": "function"
    },
    {
      "inputs": [
        {
          "internalType": "bytes32",
          "name": "role",
          "type": "bytes32"
        }
      ],
      "name": "getRoleAdmin",
      "outputs": [
        {
          "internalType": "bytes32",
          "name": "",
          "type": "bytes32"
        }
      ],
      "stateMutability": "view",
      "type": "function"
    },
    {
      "inputs": [
        {
          "internalType": "contract ERC20",
          "name": "_collateralToken",
          "type": "address"
        },
        {
          "internalType": "address",
          "name": "_owner",
          "type": "address"
        }
      ],
      "name": "getVaultInfo",
      "outputs": [
        {
          "internalType": "uint256",
          "name": "",
          "type": "uint256"
        },
        {
          "internalType": "uint256",
          "name": "",
          "type": "uint256"
        }
      ],
      "stateMutability": "view",
      "type": "function"
    },
    {
      "inputs": [
        {
          "internalType": "bytes32",
          "name": "role",
          "type": "bytes32"
        },
        {
          "internalType": "address",
          "name": "account",
          "type": "address"
        }
      ],
      "name": "grantRole",
      "outputs": [],
      "stateMutability": "nonpayable",
      "type": "function"
    },
    {
      "inputs": [
        {
          "internalType": "bytes32",
          "name": "role",
          "type": "bytes32"
        },
        {
          "internalType": "address",
          "name": "account",
          "type": "address"
        }
      ],
      "name": "hasRole",
      "outputs": [
        {
          "internalType": "bool",
          "name": "",
          "type": "bool"
        }
      ],
      "stateMutability": "view",
      "type": "function"
    },
    {
      "inputs": [
        {
          "internalType": "contract ERC20",
          "name": "_collateralToken",
          "type": "address"
        },
        {
          "internalType": "address",
          "name": "_owner",
          "type": "address"
        },
        {
          "internalType": "address",
          "name": "_to",
          "type": "address"
        },
        {
          "internalType": "uint256",
          "name": "_currencyAmountToPay",
          "type": "uint256"
        }
      ],
      "name": "liquidate",
      "outputs": [],
      "stateMutability": "nonpayable",
      "type": "function"
    },
    {
      "inputs": [],
      "name": "pause",
      "outputs": [],
      "stateMutability": "nonpayable",
      "type": "function"
    },
    {
      "inputs": [
        {
          "internalType": "contract ERC20",
          "name": "_collateralToken",
          "type": "address"
        },
        {
          "internalType": "uint256",
          "name": "_amount",
          "type": "uint256"
        }
      ],
      "name": "payCurrency",
      "outputs": [],
      "stateMutability": "nonpayable",
      "type": "function"
    },
    {
      "inputs": [
        {
          "internalType": "bytes32",
          "name": "role",
          "type": "bytes32"
        },
        {
          "internalType": "address",
          "name": "callerConfirmation",
          "type": "address"
        }
      ],
      "name": "renounceRole",
      "outputs": [],
      "stateMutability": "nonpayable",
      "type": "function"
    },
    {
      "inputs": [
        {
          "internalType": "bytes32",
          "name": "role",
          "type": "bytes32"
        },
        {
          "internalType": "address",
          "name": "account",
          "type": "address"
        }
      ],
      "name": "revokeRole",
      "outputs": [],
      "stateMutability": "nonpayable",
      "type": "function"
    },
    {
      "inputs": [],
      "name": "status",
      "outputs": [
        {
          "internalType": "uint256",
          "name": "",
          "type": "uint256"
        }
      ],
      "stateMutability": "view",
      "type": "function"
    },
    {
      "inputs": [
        {
          "internalType": "bytes4",
          "name": "interfaceId",
          "type": "bytes4"
        }
      ],
      "name": "supportsInterface",
      "outputs": [
        {
          "internalType": "bool",
          "name": "",
          "type": "bool"
        }
      ],
      "stateMutability": "view",
      "type": "function"
    },
    {
      "inputs": [],
      "name": "unpause",
      "outputs": [],
      "stateMutability": "nonpayable",
      "type": "function"
    },
    {
      "inputs": [
        {
          "internalType": "contract ERC20",
          "name": "_collateralToken",
          "type": "address"
        },
        {
          "internalType": "bytes32",
          "name": "_param",
          "type": "bytes32"
        },
        {
          "internalType": "uint256",
          "name": "_data",
          "type": "uint256"
        }
      ],
      "name": "updateCollateralData",
      "outputs": [],
      "stateMutability": "nonpayable",
      "type": "function"
    },
    {
      "inputs": [
        {
          "internalType": "address",
          "name": "_feedContract",
          "type": "address"
        }
      ],
      "name": "updateFeedContract",
      "outputs": [],
      "stateMutability": "nonpayable",
      "type": "function"
    },
    {
      "inputs": [
        {
          "internalType": "address",
          "name": "_collateralAddress",
          "type": "address"
        },
        {
          "internalType": "uint256",
          "name": "_price",
          "type": "uint256"
        }
      ],
      "name": "updatePrice",
      "outputs": [],
      "stateMutability": "nonpayable",
      "type": "function"
    },
    {
      "inputs": [
        {
          "internalType": "contract ERC20",
          "name": "",
          "type": "address"
        },
        {
          "internalType": "address",
          "name": "",
          "type": "address"
        }
      ],
      "name": "vaultMapping",
      "outputs": [
        {
          "internalType": "uint256",
          "name": "depositedCollateral",
          "type": "uint256"
        },
        {
          "internalType": "uint256",
          "name": "borrowedAmount",
          "type": "uint256"
        },
        {
          "internalType": "uint256",
          "name": "lastUpdateTime",
          "type": "uint256"
        }
      ],
      "stateMutability": "view",
      "type": "function"
    },
    {
      "inputs": [
        {
          "internalType": "contract ERC20",
          "name": "_collateralToken",
          "type": "address"
        },
        {
          "internalType": "address",
          "name": "_to",
          "type": "address"
        },
        {
          "internalType": "uint256",
          "name": "_amount",
          "type": "uint256"
        }
      ],
      "name": "withdrawCollateral",
      "outputs": [],
      "stateMutability": "nonpayable",
      "type": "function"
    }
  ],
  "bytecode": {
    "object": "0x60a06040523480156200001157600080fd5b5060405162001c2138038062001c21833981016040819052620000349162000107565b6200004160003362000058565b50600280556001600160a01b031660805262000139565b6000828152602081815260408083206001600160a01b038516845290915281205460ff16620000fd576000838152602081815260408083206001600160a01b03861684529091529020805460ff19166001179055620000b43390565b6001600160a01b0316826001600160a01b0316847f2f8788117e7eff1d82e926ec794901d17c78024a50270940304540a733656f0d60405160405180910390a450600162000101565b5060005b92915050565b6000602082840312156200011a57600080fd5b81516001600160a01b03811681146200013257600080fd5b9392505050565b608051611abe62000163600039600081816104680152818161117501526114110152611abe6000f3fe608060405234801561001057600080fd5b506004361061018e5760003560e01c806369c78e86116100de578063a5d5db0c11610097578063d547741f11610071578063d547741f146103e8578063e07543d8146103fb578063e2c7283f1461040e578063e72531c81461046357600080fd5b8063a5d5db0c14610311578063aab3f86814610324578063c665471f1461033757600080fd5b806369c78e86146102a0578063708df104146102b35780638456cb59146102c657806391d14854146102ce5780639436030e146102e1578063a217fddf1461030957600080fd5b80632f2ff15d1161014b5780634522fa85116101255780634522fa8514610254578063457972de1461026757806363d46ab01461027a578063645ba4251461028d57600080fd5b80632f2ff15d1461022657806336568abe146102395780633f4ba83a1461024c57600080fd5b806301ffc9a7146101935780630dca59c1146101bb578063200d2ed2146101d2578063248055e5146101db578063248a9ca3146101f05780632ae8bdfe14610213575b600080fd5b6101a66101a136600461169d565b6104a2565b60405190151581526020015b60405180910390f35b6101c460015481565b6040519081526020016101b2565b6101c460025481565b6101ee6101e93660046116dc565b6104d9565b005b6101c46101fe366004611711565b60009081526020819052604090206001015490565b6101ee61022136600461172a565b6105fe565b6101ee61023436600461176b565b6106a6565b6101ee61024736600461176b565b6106cb565b6101ee610703565b6101ee61026236600461179b565b610715565b6101ee6102753660046117b8565b61076d565b6101ee61028836600461172a565b6107da565b6101ee61029b3660046117e4565b6108d7565b6101c46102ae366004611830565b610a36565b6101c46102c1366004611830565b610a78565b6101ee610ab3565b6101a66102dc36600461176b565b610ac6565b6102f46102ef366004611830565b610aef565b604080519283526020830191909152016101b2565b6101c4600081565b6101ee61031f3660046117b8565b610c34565b6101ee61033236600461185e565b610c99565b61039c61034536600461179b565b60036020819052600091825260409091208054600182015460028301549383015460048401546005850154600686015460078701546008880154600990980154969895979596949593949293919290919060ff168a565b604080519a8b5260208b0199909952978901969096526060880194909452608087019290925260a086015260c085015260e08401526101008301521515610120820152610140016101b2565b6101ee6103f636600461176b565b610dae565b6101ee6104093660046117b8565b610dd3565b61044861041c366004611830565b600460209081526000928352604080842090915290825290208054600182015460029092015490919083565b604080519384526020840192909252908201526060016101b2565b61048a7f000000000000000000000000000000000000000000000000000000000000000081565b6040516001600160a01b0390911681526020016101b2565b60006001600160e01b03198216637965db0b60e01b14806104d357506301ffc9a760e01b6001600160e01b03198316145b92915050565b6001600254036104fc576040516313d0ff5960e31b815260040160405180910390fd5b600061050781610e82565b6001600160a01b03841660009081526003602052604090206a646562744365696c696e6760a81b84900361054157600681018390556105f7565b837f636f6c6c61746572616c466c6f6f72506572506f736974696f6e0000000000000361057457600781018390556105f7565b83637261746560e01b0361058e57600481018390556105f7565b836f6c69717569646174696f6e426f6e757360801b036105b457600381018390556105f7565b83731b1a5c5d5a59185d1a5bdb951a1c995cda1bdb1960621b036105de57600281018390556105f7565b60405163013a5fe960e71b815260040160405180910390fd5b5050505050565b600160025403610621576040516313d0ff5960e31b815260040160405180910390fd5b604051818152339081907fc30fcfbcaac9e0deffa719714eaa82396ff506a0d0d0eebe170830177288715d9060200160405180910390a261066484828585610e8f565b6001600160a01b038085166000818152600460209081526040808320948616835293815283822092825260039052919091206106a09190610f04565b50505050565b6000828152602081905260409020600101546106c181610e82565b6106a08383610f48565b6001600160a01b03811633146106f45760405163334bd91960e11b815260040160405180910390fd5b6106fe8282610fda565b505050565b600061070e81610e82565b5060028055565b600160025403610738576040516313d0ff5960e31b815260040160405180910390fd5b600061074381610e82565b6106fe7fd30e44b6367b3271655a8fdafcfc17a83191efab29a626ed0c76e1f42d65e33283610f48565b600160025403610790576040516313d0ff5960e31b815260040160405180910390fd5b7fd30e44b6367b3271655a8fdafcfc17a83191efab29a626ed0c76e1f42d65e3326107ba81610e82565b506001600160a01b03909116600090815260036020526040902060050155565b6001600254036107fd576040516313d0ff5960e31b815260040160405180910390fd5b6001600160a01b0383166000818152600460209081526040808320338085529083528184209484526003909252909120600283015491929115610849576108448282611045565b610850565b4260028301555b826001600160a01b03167ff3cabfaab4b1f05d0a17662ad328a3c3fc4a8a1dcee5946e5d5726fa5125700e8560405161088b91815260200190565b60405180910390a261089f82828787611102565b8154600782015411156108c557604051638464610360e01b815260040160405180910390fd5b6108cf8282610f04565b505050505050565b6001600254036108fa576040516313d0ff5960e31b815260040160405180910390fd5b600061090581610e82565b6001600160a01b0387166000908152600360205260409020600981015460ff161561094357604051632fd4237160e21b815260040160405180910390fd5b6004808201889055600282018790556003820186905560068201859055600782018490556040805163313ce56760e01b815290516001600160a01b038b169263313ce567928082019260209290918290030181865afa1580156109aa573d6000803e3d6000fd5b505050506040513d601f19601f820116820180604052508101906109ce91906118af565b6109dc9060ff1660126118e8565b600882015560098101805460ff191660011790556040516001600160a01b03891681527f7db05e63d635a68c62fd7fd8f3107ae8ab584a383e102d1bd8a40f4c977e465f9060200160405180910390a15050505050505050565b6001600160a01b038083166000818152600460209081526040808320948616835293815283822092825260039052918220610a7191906111e3565b9392505050565b6001600160a01b038083166000818152600460209081526040808320948616835293815283822092825260039052918220610a71919061123c565b6000610abe81610e82565b506001600255565b6000918252602082815260408084206001600160a01b0393909316845291905290205460ff1690565b6001600160a01b038083166000818152600460208181526040808420958716845294815284832085516060808201885282548252600180840154838601908152600294850154848b015297875260038086528988208a5161014081018c52815481529281015496830196909652938501549881019890985291830154918701919091529181015460808601819052600582015460a0870152600682015460c0870152600782015460e0870152600882015461010087015260099091015460ff1615156101208601529251919384939192909115610c26576000610bd46012600a6119df565b610bdf9060016119eb565b84602001518460800151610bf391906119eb565b610bfd9190611a02565b6040850151610c0c90426118e8565b610c1691906119eb565b9050610c228183611a24565b9150505b915196919550909350505050565b600160025403610c57576040516313d0ff5960e31b815260040160405180910390fd5b604051818152339081907f8068d3c02236d1d733f9f2a0357e2d00025cc50fc4152d6d1e22846fd11c84f39060200160405180910390a26106fe8382846112ef565b600160025403610cbc576040516313d0ff5960e31b815260040160405180910390fd5b6001600160a01b03808516600081815260046020908152604080832094881683529381528382209282526003905291909120610cf88282611045565b610d046012600a6119df565b610d0f9060016119eb565b610d19838361123c565b10610d3757604051632066819b60e21b815260040160405180910390fd5b6000610d438285611365565b90506000610d536012600a6119df565b610d5e9060016119eb565b6003840154610d6d90846119eb565b610d779190611a02565b9050610d8e888888610d898587611a24565b610e8f565b610d9a8484338861139e565b610da48484610f04565b5050505050505050565b600082815260208190526040902060010154610dc981610e82565b6106a08383610fda565b600160025403610df6576040516313d0ff5960e31b815260040160405180910390fd5b6001600160a01b0382166000818152600460209081526040808320338085529083528184209484526003909252909120909190610e338282611045565b826001600160a01b03167ff3cabfaab4b1f05d0a17662ad328a3c3fc4a8a1dcee5946e5d5726fa5125700e85604051610e6e91815260200190565b60405180910390a26105f78282858761139e565b610e8c8133611440565b50565b6001600160a01b03808516600090815260046020908152604080832093871683529290529081208054839290610ec69084906118e8565b90915550506001600160a01b03841660009081526003602052604081208054839290610ef39084906118e8565b909155506106a0905084838361147e565b610f106012600a6119df565b610f1b9060016119eb565b610f25838361123c565b1015610f445760405163cf3af85360e01b815260040160405180910390fd5b5050565b6000610f548383610ac6565b610fd2576000838152602081815260408083206001600160a01b03861684529091529020805460ff19166001179055610f8a3390565b6001600160a01b0316826001600160a01b0316847f2f8788117e7eff1d82e926ec794901d17c78024a50270940304540a733656f0d60405160405180910390a45060016104d3565b5060006104d3565b6000610fe68383610ac6565b15610fd2576000838152602081815260408083206001600160a01b0386168085529252808320805460ff1916905551339286917ff6391f5c32d9c69d2a47ea670b442974b53935d1edc7fd64eb21e047a839171b9190a45060016104d3565b8060040154600003611055575050565b60006110636012600a6119df565b61106e9060016119eb565b8360010154836004015461108291906119eb565b61108c9190611a02565b600284015461109b90426118e8565b6110a591906119eb565b9050428360020181905550808360010160008282546110c49190611a24565b92505081905550808260010160008282546110df9190611a24565b9250508190555080600160008282546110f89190611a24565b9091555050505050565b808460010160008282546111169190611a24565b92505081905550808360010160008282546111319190611a24565b92505081905550806001600082825461114a9190611a24565b90915550506040516340c10f1960e01b81526001600160a01b038381166004830152602482018390527f000000000000000000000000000000000000000000000000000000000000000016906340c10f19906044015b6020604051808303816000875af11580156111bf573d6000803e3d6000fd5b505050506040513d601f19601f820116820180604052508101906105f79190611a37565b6000806111f26012600a6119df565b6111fd9060016119eb565b64e8d4a5100084600501546112168688600001546114dd565b61122091906119eb565b61122a91906119eb565b6112349190611a02565b949350505050565b81546000908103611260576040516375d8f05d60e11b815260040160405180910390fd5b60015460000361127357506000196104d3565b600061127f84846111e3565b9050600061128f6012600a6119df565b61129a9060016119eb565b60028501546112a990846119eb565b6112b39190611a02565b60018601549091506112c76012600a6119df565b6112d29060016119eb565b6112dc90836119eb565b6112e69190611a02565b95945050505050565b6001600160a01b03808416600090815260046020908152604080832093861683529290529081208054839290611326908490611a24565b90915550506001600160a01b03831660009081526003602052604081208054839290611353908490611a24565b909155506106fe9050838330846114fa565b60008064e8d4a51000846005015461137d91906119eb565b6113896012600a6119df565b6113949060016119eb565b61122086866114dd565b808460010160008282546113b291906118e8565b92505081905550808360010160008282546113cd91906118e8565b9250508190555080600160008282546113e691906118e8565b9091555050604051632770a7eb60e21b81526001600160a01b038381166004830152602482018390527f00000000000000000000000000000000000000000000000000000000000000001690639dc29fac906044016111a0565b61144a8282610ac6565b610f445760405163e2517d3f60e01b81526001600160a01b0382166004820152602481018390526044015b60405180910390fd5b6040516001600160a01b038381166024830152604482018390526106fe91859182169063a9059cbb906064015b604051602081830303815290604052915060e01b6020820180516001600160e01b038381831617835250505050611533565b60008260080154600a6114f091906119df565b610a7190836119eb565b6040516001600160a01b0384811660248301528381166044830152606482018390526106a09186918216906323b872dd906084016114ab565b60006115486001600160a01b03841683611596565b9050805160001415801561156d57508080602001905181019061156b9190611a37565b155b156106fe57604051635274afe760e01b81526001600160a01b0384166004820152602401611475565b6060610a718383600084600080856001600160a01b031684866040516115bc9190611a59565b60006040518083038185875af1925050503d80600081146115f9576040519150601f19603f3d011682016040523d82523d6000602084013e6115fe565b606091505b509150915061160e868383611618565b9695505050505050565b60608261162d5761162882611674565b610a71565b815115801561164457506001600160a01b0384163b155b1561166d57604051639996b31560e01b81526001600160a01b0385166004820152602401611475565b5080610a71565b8051156116845780518082602001fd5b604051630a12f52160e11b815260040160405180910390fd5b6000602082840312156116af57600080fd5b81356001600160e01b031981168114610a7157600080fd5b6001600160a01b0381168114610e8c57600080fd5b6000806000606084860312156116f157600080fd5b83356116fc816116c7565b95602085013595506040909401359392505050565b60006020828403121561172357600080fd5b5035919050565b60008060006060848603121561173f57600080fd5b833561174a816116c7565b9250602084013561175a816116c7565b929592945050506040919091013590565b6000806040838503121561177e57600080fd5b823591506020830135611790816116c7565b809150509250929050565b6000602082840312156117ad57600080fd5b8135610a71816116c7565b600080604083850312156117cb57600080fd5b82356117d6816116c7565b946020939093013593505050565b60008060008060008060c087890312156117fd57600080fd5b8635611808816116c7565b9860208801359850604088013597606081013597506080810135965060a00135945092505050565b6000806040838503121561184357600080fd5b823561184e816116c7565b91506020830135611790816116c7565b6000806000806080858703121561187457600080fd5b843561187f816116c7565b9350602085013561188f816116c7565b9250604085013561189f816116c7565b9396929550929360600135925050565b6000602082840312156118c157600080fd5b815160ff81168114610a7157600080fd5b634e487b7160e01b600052601160045260246000fd5b818103818111156104d3576104d36118d2565b600181815b8085111561193657816000190482111561191c5761191c6118d2565b8085161561192957918102915b93841c9390800290611900565b509250929050565b60008261194d575060016104d3565b8161195a575060006104d3565b8160018114611970576002811461197a57611996565b60019150506104d3565b60ff84111561198b5761198b6118d2565b50506001821b6104d3565b5060208310610133831016604e8410600b84101617156119b9575081810a6104d3565b6119c383836118fb565b80600019048211156119d7576119d76118d2565b029392505050565b6000610a71838361193e565b80820281158282048414176104d3576104d36118d2565b600082611a1f57634e487b7160e01b600052601260045260246000fd5b500490565b808201808211156104d3576104d36118d2565b600060208284031215611a4957600080fd5b81518015158114610a7157600080fd5b6000825160005b81811015611a7a5760208186018101518583015201611a60565b50600092019182525091905056fea264697066735822122060c57d4556711c0be01bb14765e6af0ba16616282a6de6b990a15d515ea830c764736f6c63430008150033",
    "linkReferences": {}
  },
  "methodIdentifiers": {
    "CURRENCY_TOKEN()": "e72531c8",
    "DEFAULT_ADMIN_ROLE()": "a217fddf",
    "borrowCurrency(address,address,uint256)": "63d46ab0",
    "checkHealthFactor(address,address)": "708df104",
    "collateralMapping(address)": "c665471f",
    "createCollateralType(address,uint256,uint256,uint256,uint256,uint256)": "645ba425",
    "debt()": "0dca59c1",
    "depositCollateral(address,uint256)": "a5d5db0c",
    "getCurrencyValueOfCollateral(address,address)": "69c78e86",
    "getRoleAdmin(bytes32)": "248a9ca3",
    "getVaultInfo(address,address)": "9436030e",
    "grantRole(bytes32,address)": "2f2ff15d",
    "hasRole(bytes32,address)": "91d14854",
    "liquidate(address,address,address,uint256)": "aab3f868",
    "pause()": "8456cb59",
    "payCurrency(address,uint256)": "e07543d8",
    "renounceRole(bytes32,address)": "36568abe",
    "revokeRole(bytes32,address)": "d547741f",
    "status()": "200d2ed2",
    "supportsInterface(bytes4)": "01ffc9a7",
    "unpause()": "3f4ba83a",
    "updateCollateralData(address,bytes32,uint256)": "248055e5",
    "updateFeedContract(address)": "4522fa85",
    "updatePrice(address,uint256)": "457972de",
    "vaultMapping(address,address)": "e2c7283f",
    "withdrawCollateral(address,address,uint256)": "2ae8bdfe"
  },
  "id": 47
}