{
  "abi": [
    {
      "inputs": [
        {
          "internalType": "contract Vault",
          "name": "_vault",
          "type": "address"
        }
      ],
      "stateMutability": "nonpayable",
      "type": "constructor"
    },
    {
      "inputs": [],
      "name": "AccessControlBadConfirmation",
      "type": "error"
    },
    {
      "inputs": [
        {
          "internalType": "address",
          "name": "account",
          "type": "address"
        },
        {
          "internalType": "bytes32",
          "name": "neededRole",
          "type": "bytes32"
        }
      ],
      "name": "AccessControlUnauthorizedAccount",
      "type": "error"
    },
    {
      "inputs": [],
      "name": "Paused",
      "type": "error"
    },
    {
      "anonymous": false,
      "inputs": [
        {
          "indexed": false,
          "internalType": "address",
          "name": "collateral",
          "type": "address"
        },
        {
          "indexed": false,
          "internalType": "uint256",
          "name": "price",
          "type": "uint256"
        }
      ],
      "name": "Read",
      "type": "event"
    },
    {
      "anonymous": false,
      "inputs": [
        {
          "indexed": true,
          "internalType": "bytes32",
          "name": "role",
          "type": "bytes32"
        },
        {
          "indexed": true,
          "internalType": "bytes32",
          "name": "previousAdminRole",
          "type": "bytes32"
        },
        {
          "indexed": true,
          "internalType": "bytes32",
          "name": "newAdminRole",
          "type": "bytes32"
        }
      ],
      "name": "RoleAdminChanged",
      "type": "event"
    },
    {
      "anonymous": false,
      "inputs": [
        {
          "indexed": true,
          "internalType": "bytes32",
          "name": "role",
          "type": "bytes32"
        },
        {
          "indexed": true,
          "internalType": "address",
          "name": "account",
          "type": "address"
        },
        {
          "indexed": true,
          "internalType": "address",
          "name": "sender",
          "type": "address"
        }
      ],
      "name": "RoleGranted",
      "type": "event"
    },
    {
      "anonymous": false,
      "inputs": [
        {
          "indexed": true,
          "internalType": "bytes32",
          "name": "role",
          "type": "bytes32"
        },
        {
          "indexed": true,
          "internalType": "address",
          "name": "account",
          "type": "address"
        },
        {
          "indexed": true,
          "internalType": "address",
          "name": "sender",
          "type": "address"
        }
      ],
      "name": "RoleRevoked",
      "type": "event"
    },
    {
      "inputs": [],
      "name": "DEFAULT_ADMIN_ROLE",
      "outputs": [
        {
          "internalType": "bytes32",
          "name": "",
          "type": "bytes32"
        }
      ],
      "stateMutability": "view",
      "type": "function"
    },
    {
      "inputs": [
        {
          "internalType": "address",
          "name": "",
          "type": "address"
        }
      ],
      "name": "collaterals",
      "outputs": [
        {
          "internalType": "contract IMedian",
          "name": "",
          "type": "address"
        }
      ],
      "stateMutability": "view",
      "type": "function"
    },
    {
      "inputs": [
        {
          "internalType": "bytes32",
          "name": "role",
          "type": "bytes32"
        }
      ],
      "name": "getRoleAdmin",
      "outputs": [
        {
          "internalType": "bytes32",
          "name": "",
          "type": "bytes32"
        }
      ],
      "stateMutability": "view",
      "type": "function"
    },
    {
      "inputs": [
        {
          "internalType": "bytes32",
          "name": "role",
          "type": "bytes32"
        },
        {
          "internalType": "address",
          "name": "account",
          "type": "address"
        }
      ],
      "name": "grantRole",
      "outputs": [],
      "stateMutability": "nonpayable",
      "type": "function"
    },
    {
      "inputs": [
        {
          "internalType": "bytes32",
          "name": "role",
          "type": "bytes32"
        },
        {
          "internalType": "address",
          "name": "account",
          "type": "address"
        }
      ],
      "name": "hasRole",
      "outputs": [
        {
          "internalType": "bool",
          "name": "",
          "type": "bool"
        }
      ],
      "stateMutability": "view",
      "type": "function"
    },
    {
      "inputs": [
        {
          "internalType": "address",
          "name": "collateral",
          "type": "address"
        },
        {
          "internalType": "uint256",
          "name": "price",
          "type": "uint256"
        }
      ],
      "name": "mockUpdatePrice",
      "outputs": [],
      "stateMutability": "nonpayable",
      "type": "function"
    },
    {
      "inputs": [],
      "name": "pause",
      "outputs": [],
      "stateMutability": "nonpayable",
      "type": "function"
    },
    {
      "inputs": [
        {
          "internalType": "bytes32",
          "name": "role",
          "type": "bytes32"
        },
        {
          "internalType": "address",
          "name": "callerConfirmation",
          "type": "address"
        }
      ],
      "name": "renounceRole",
      "outputs": [],
      "stateMutability": "nonpayable",
      "type": "function"
    },
    {
      "inputs": [
        {
          "internalType": "bytes32",
          "name": "role",
          "type": "bytes32"
        },
        {
          "internalType": "address",
          "name": "account",
          "type": "address"
        }
      ],
      "name": "revokeRole",
      "outputs": [],
      "stateMutability": "nonpayable",
      "type": "function"
    },
    {
      "inputs": [
        {
          "internalType": "address",
          "name": "oracle",
          "type": "address"
        },
        {
          "internalType": "address",
          "name": "collateral",
          "type": "address"
        }
      ],
      "name": "setPriceOracleContract",
      "outputs": [],
      "stateMutability": "nonpayable",
      "type": "function"
    },
    {
      "inputs": [],
      "name": "status",
      "outputs": [
        {
          "internalType": "uint256",
          "name": "",
          "type": "uint256"
        }
      ],
      "stateMutability": "view",
      "type": "function"
    },
    {
      "inputs": [
        {
          "internalType": "bytes4",
          "name": "interfaceId",
          "type": "bytes4"
        }
      ],
      "name": "supportsInterface",
      "outputs": [
        {
          "internalType": "bool",
          "name": "",
          "type": "bool"
        }
      ],
      "stateMutability": "view",
      "type": "function"
    },
    {
      "inputs": [],
      "name": "unpause",
      "outputs": [],
      "stateMutability": "nonpayable",
      "type": "function"
    },
    {
      "inputs": [
        {
          "internalType": "address",
          "name": "collateral",
          "type": "address"
        }
      ],
      "name": "updatePrice",
      "outputs": [],
      "stateMutability": "nonpayable",
      "type": "function"
    },
    {
      "inputs": [],
      "name": "vault",
      "outputs": [
        {
          "internalType": "contract Vault",
          "name": "",
          "type": "address"
        }
      ],
      "stateMutability": "view",
      "type": "function"
    }
  ],
  "bytecode": {
    "object": "0x608060405234801561001057600080fd5b506040516109e03803806109e083398101604081905261002f91610110565b61003a600033610064565b50600180546001600160a01b0319166001600160a01b039290921691909117905560028055610140565b6000828152602081815260408083206001600160a01b038516845290915281205460ff16610106576000838152602081815260408083206001600160a01b03861684529091529020805460ff191660011790556100be3390565b6001600160a01b0316826001600160a01b0316847f2f8788117e7eff1d82e926ec794901d17c78024a50270940304540a733656f0d60405160405180910390a450600161010a565b5060005b92915050565b60006020828403121561012257600080fd5b81516001600160a01b038116811461013957600080fd5b9392505050565b6108918061014f6000396000f3fe608060405234801561001057600080fd5b50600436106100f55760003560e01c80638456cb5911610097578063c7331b0111610066578063c7331b01146101d5578063d547741f146101e8578063eeb97d3b146101fb578063fbfa77cf1461023c57600080fd5b80638456cb591461019f57806391d14854146101a757806396e85ced146101ba578063a217fddf146101cd57600080fd5b80632f2ff15d116100d35780632f2ff15d1461015c57806336568abe146101715780633f4ba83a146101845780635ab68dd81461018c57600080fd5b806301ffc9a7146100fa578063200d2ed214610122578063248a9ca314610139575b600080fd5b61010d610108366004610736565b61024f565b60405190151581526020015b60405180910390f35b61012b60025481565b604051908152602001610119565b61012b610147366004610767565b60009081526020819052604090206001015490565b61016f61016a36600461079c565b610286565b005b61016f61017f36600461079c565b6102b1565b61016f6102e9565b61016f61019a3660046107c8565b6102fb565b61016f61035a565b61010d6101b536600461079c565b61036d565b61016f6101c83660046107f2565b610396565b61012b600081565b61016f6101e336600461080d565b6104f2565b61016f6101f636600461079c565b6105c6565b6102246102093660046107f2565b6003602052600090815260409020546001600160a01b031681565b6040516001600160a01b039091168152602001610119565b600154610224906001600160a01b031681565b60006001600160e01b03198216637965db0b60e01b148061028057506301ffc9a760e01b6001600160e01b03198316145b92915050565b6000828152602081905260409020600101546102a1816105eb565b6102ab83836105f8565b50505050565b6001600160a01b03811633146102da5760405163334bd91960e11b815260040160405180910390fd5b6102e4828261068a565b505050565b60006102f4816105eb565b5060028055565b60016002540361031e576040516313d0ff5960e31b815260040160405180910390fd5b6000610329816105eb565b506001600160a01b0390811660009081526003602052604090208054919092166001600160a01b0319909116179055565b6000610365816105eb565b506001600255565b6000918252602082815260408084206001600160a01b0393909316845291905290205460ff1690565b6001600254036103b9576040516313d0ff5960e31b815260040160405180910390fd5b60006103c4816105eb565b6001600160a01b038083166000908152600360205260408082205481516315f789a960e21b81528251939491909116926357de26a4926004808401939192918290030181865afa15801561041c573d6000803e3d6000fd5b505050506040513d601f19601f820116820180604052508101906104409190610837565b6001546040516322bcb96f60e11b81526001600160a01b038781166004830152602482018490529294509116915063457972de90604401600060405180830381600087803b15801561049157600080fd5b505af11580156104a5573d6000803e3d6000fd5b5050604080516001600160a01b0387168152602081018590527feee6047fc5e3ea81b2b940b6b7c0140055ee3f19ba649d78e25718bdf67eae4093500190505b60405180910390a1505050565b600160025403610515576040516313d0ff5960e31b815260040160405180910390fd5b6000610520816105eb565b6001546040516322bcb96f60e11b81526001600160a01b038581166004830152602482018590529091169063457972de90604401600060405180830381600087803b15801561056e57600080fd5b505af1158015610582573d6000803e3d6000fd5b5050604080516001600160a01b0387168152602081018690527feee6047fc5e3ea81b2b940b6b7c0140055ee3f19ba649d78e25718bdf67eae4093500190506104e5565b6000828152602081905260409020600101546105e1816105eb565b6102ab838361068a565b6105f581336106f5565b50565b6000610604838361036d565b610682576000838152602081815260408083206001600160a01b03861684529091529020805460ff1916600117905561063a3390565b6001600160a01b0316826001600160a01b0316847f2f8788117e7eff1d82e926ec794901d17c78024a50270940304540a733656f0d60405160405180910390a4506001610280565b506000610280565b6000610696838361036d565b15610682576000838152602081815260408083206001600160a01b0386168085529252808320805460ff1916905551339286917ff6391f5c32d9c69d2a47ea670b442974b53935d1edc7fd64eb21e047a839171b9190a4506001610280565b6106ff828261036d565b6107325760405163e2517d3f60e01b81526001600160a01b03821660048201526024810183905260440160405180910390fd5b5050565b60006020828403121561074857600080fd5b81356001600160e01b03198116811461076057600080fd5b9392505050565b60006020828403121561077957600080fd5b5035919050565b80356001600160a01b038116811461079757600080fd5b919050565b600080604083850312156107af57600080fd5b823591506107bf60208401610780565b90509250929050565b600080604083850312156107db57600080fd5b6107e483610780565b91506107bf60208401610780565b60006020828403121561080457600080fd5b61076082610780565b6000806040838503121561082057600080fd5b61082983610780565b946020939093013593505050565b6000806040838503121561084a57600080fd5b50508051602090910151909290915056fea2646970667358221220259b33089711da4eac8c398396bc4b44db8e1cfec03139c01aaf09baf8209acd64736f6c63430008150033",
    "linkReferences": {}
  },
  "methodIdentifiers": {
    "DEFAULT_ADMIN_ROLE()": "a217fddf",
    "collaterals(address)": "eeb97d3b",
    "getRoleAdmin(bytes32)": "248a9ca3",
    "grantRole(bytes32,address)": "2f2ff15d",
    "hasRole(bytes32,address)": "91d14854",
    "mockUpdatePrice(address,uint256)": "c7331b01",
    "pause()": "8456cb59",
    "renounceRole(bytes32,address)": "36568abe",
    "revokeRole(bytes32,address)": "d547741f",
    "setPriceOracleContract(address,address)": "5ab68dd8",
    "status()": "200d2ed2",
    "supportsInterface(bytes4)": "01ffc9a7",
    "unpause()": "3f4ba83a",
    "updatePrice(address)": "96e85ced",
    "vault()": "fbfa77cf"
  },
  "id": 42
}