{
  "abi": [
    {
      "inputs": [
        {
          "internalType": "string",
          "name": "_name",
          "type": "string"
        },
        {
          "internalType": "string",
          "name": "_symbol",
          "type": "string"
        }
      ],
      "stateMutability": "nonpayable",
      "type": "constructor"
    },
    {
      "inputs": [],
      "name": "AccessControlBadConfirmation",
      "type": "error"
    },
    {
      "inputs": [
        {
          "internalType": "address",
          "name": "account",
          "type": "address"
        },
        {
          "internalType": "bytes32",
          "name": "neededRole",
          "type": "bytes32"
        }
      ],
      "name": "AccessControlUnauthorizedAccount",
      "type": "error"
    },
    {
      "inputs": [],
      "name": "ECDSAInvalidSignature",
      "type": "error"
    },
    {
      "inputs": [
        {
          "internalType": "uint256",
          "name": "length",
          "type": "uint256"
        }
      ],
      "name": "ECDSAInvalidSignatureLength",
      "type": "error"
    },
    {
      "inputs": [
        {
          "internalType": "bytes32",
          "name": "s",
          "type": "bytes32"
        }
      ],
      "name": "ECDSAInvalidSignatureS",
      "type": "error"
    },
    {
      "inputs": [
        {
          "internalType": "address",
          "name": "spender",
          "type": "address"
        },
        {
          "internalType": "uint256",
          "name": "allowance",
          "type": "uint256"
        },
        {
          "internalType": "uint256",
          "name": "needed",
          "type": "uint256"
        }
      ],
      "name": "ERC20InsufficientAllowance",
      "type": "error"
    },
    {
      "inputs": [
        {
          "internalType": "address",
          "name": "sender",
          "type": "address"
        },
        {
          "internalType": "uint256",
          "name": "balance",
          "type": "uint256"
        },
        {
          "internalType": "uint256",
          "name": "needed",
          "type": "uint256"
        }
      ],
      "name": "ERC20InsufficientBalance",
      "type": "error"
    },
    {
      "inputs": [
        {
          "internalType": "address",
          "name": "approver",
          "type": "address"
        }
      ],
      "name": "ERC20InvalidApprover",
      "type": "error"
    },
    {
      "inputs": [
        {
          "internalType": "address",
          "name": "receiver",
          "type": "address"
        }
      ],
      "name": "ERC20InvalidReceiver",
      "type": "error"
    },
    {
      "inputs": [
        {
          "internalType": "address",
          "name": "sender",
          "type": "address"
        }
      ],
      "name": "ERC20InvalidSender",
      "type": "error"
    },
    {
      "inputs": [
        {
          "internalType": "address",
          "name": "spender",
          "type": "address"
        }
      ],
      "name": "ERC20InvalidSpender",
      "type": "error"
    },
    {
      "inputs": [
        {
          "internalType": "uint256",
          "name": "deadline",
          "type": "uint256"
        }
      ],
      "name": "ERC2612ExpiredSignature",
      "type": "error"
    },
    {
      "inputs": [
        {
          "internalType": "address",
          "name": "signer",
          "type": "address"
        },
        {
          "internalType": "address",
          "name": "owner",
          "type": "address"
        }
      ],
      "name": "ERC2612InvalidSigner",
      "type": "error"
    },
    {
      "inputs": [
        {
          "internalType": "address",
          "name": "account",
          "type": "address"
        },
        {
          "internalType": "uint256",
          "name": "currentNonce",
          "type": "uint256"
        }
      ],
      "name": "InvalidAccountNonce",
      "type": "error"
    },
    {
      "inputs": [],
      "name": "InvalidShortString",
      "type": "error"
    },
    {
      "inputs": [
        {
          "internalType": "string",
          "name": "str",
          "type": "string"
        }
      ],
      "name": "StringTooLong",
      "type": "error"
    },
    {
      "anonymous": false,
      "inputs": [
        {
          "indexed": true,
          "internalType": "address",
          "name": "owner",
          "type": "address"
        },
        {
          "indexed": true,
          "internalType": "address",
          "name": "spender",
          "type": "address"
        },
        {
          "indexed": false,
          "internalType": "uint256",
          "name": "value",
          "type": "uint256"
        }
      ],
      "name": "Approval",
      "type": "event"
    },
    {
      "anonymous": false,
      "inputs": [],
      "name": "EIP712DomainChanged",
      "type": "event"
    },
    {
      "anonymous": false,
      "inputs": [
        {
          "indexed": true,
          "internalType": "bytes32",
          "name": "role",
          "type": "bytes32"
        },
        {
          "indexed": true,
          "internalType": "bytes32",
          "name": "previousAdminRole",
          "type": "bytes32"
        },
        {
          "indexed": true,
          "internalType": "bytes32",
          "name": "newAdminRole",
          "type": "bytes32"
        }
      ],
      "name": "RoleAdminChanged",
      "type": "event"
    },
    {
      "anonymous": false,
      "inputs": [
        {
          "indexed": true,
          "internalType": "bytes32",
          "name": "role",
          "type": "bytes32"
        },
        {
          "indexed": true,
          "internalType": "address",
          "name": "account",
          "type": "address"
        },
        {
          "indexed": true,
          "internalType": "address",
          "name": "sender",
          "type": "address"
        }
      ],
      "name": "RoleGranted",
      "type": "event"
    },
    {
      "anonymous": false,
      "inputs": [
        {
          "indexed": true,
          "internalType": "bytes32",
          "name": "role",
          "type": "bytes32"
        },
        {
          "indexed": true,
          "internalType": "address",
          "name": "account",
          "type": "address"
        },
        {
          "indexed": true,
          "internalType": "address",
          "name": "sender",
          "type": "address"
        }
      ],
      "name": "RoleRevoked",
      "type": "event"
    },
    {
      "anonymous": false,
      "inputs": [
        {
          "indexed": true,
          "internalType": "address",
          "name": "from",
          "type": "address"
        },
        {
          "indexed": true,
          "internalType": "address",
          "name": "to",
          "type": "address"
        },
        {
          "indexed": false,
          "internalType": "uint256",
          "name": "value",
          "type": "uint256"
        }
      ],
      "name": "Transfer",
      "type": "event"
    },
    {
      "inputs": [],
      "name": "DEFAULT_ADMIN_ROLE",
      "outputs": [
        {
          "internalType": "bytes32",
          "name": "",
          "type": "bytes32"
        }
      ],
      "stateMutability": "view",
      "type": "function"
    },
    {
      "inputs": [],
      "name": "DOMAIN_SEPARATOR",
      "outputs": [
        {
          "internalType": "bytes32",
          "name": "",
          "type": "bytes32"
        }
      ],
      "stateMutability": "view",
      "type": "function"
    },
    {
      "inputs": [
        {
          "internalType": "address",
          "name": "owner",
          "type": "address"
        },
        {
          "internalType": "address",
          "name": "spender",
          "type": "address"
        }
      ],
      "name": "allowance",
      "outputs": [
        {
          "internalType": "uint256",
          "name": "",
          "type": "uint256"
        }
      ],
      "stateMutability": "view",
      "type": "function"
    },
    {
      "inputs": [
        {
          "internalType": "address",
          "name": "spender",
          "type": "address"
        },
        {
          "internalType": "uint256",
          "name": "value",
          "type": "uint256"
        }
      ],
      "name": "approve",
      "outputs": [
        {
          "internalType": "bool",
          "name": "",
          "type": "bool"
        }
      ],
      "stateMutability": "nonpayable",
      "type": "function"
    },
    {
      "inputs": [
        {
          "internalType": "address",
          "name": "account",
          "type": "address"
        }
      ],
      "name": "balanceOf",
      "outputs": [
        {
          "internalType": "uint256",
          "name": "",
          "type": "uint256"
        }
      ],
      "stateMutability": "view",
      "type": "function"
    },
    {
      "inputs": [
        {
          "internalType": "address",
          "name": "account",
          "type": "address"
        },
        {
          "internalType": "uint256",
          "name": "amount",
          "type": "uint256"
        }
      ],
      "name": "burn",
      "outputs": [
        {
          "internalType": "bool",
          "name": "",
          "type": "bool"
        }
      ],
      "stateMutability": "nonpayable",
      "type": "function"
    },
    {
      "inputs": [],
      "name": "decimals",
      "outputs": [
        {
          "internalType": "uint8",
          "name": "",
          "type": "uint8"
        }
      ],
      "stateMutability": "view",
      "type": "function"
    },
    {
      "inputs": [],
      "name": "eip712Domain",
      "outputs": [
        {
          "internalType": "bytes1",
          "name": "fields",
          "type": "bytes1"
        },
        {
          "internalType": "string",
          "name": "name",
          "type": "string"
        },
        {
          "internalType": "string",
          "name": "version",
          "type": "string"
        },
        {
          "internalType": "uint256",
          "name": "chainId",
          "type": "uint256"
        },
        {
          "internalType": "address",
          "name": "verifyingContract",
          "type": "address"
        },
        {
          "internalType": "bytes32",
          "name": "salt",
          "type": "bytes32"
        },
        {
          "internalType": "uint256[]",
          "name": "extensions",
          "type": "uint256[]"
        }
      ],
      "stateMutability": "view",
      "type": "function"
    },
    {
      "inputs": [
        {
          "internalType": "bytes32",
          "name": "role",
          "type": "bytes32"
        }
      ],
      "name": "getRoleAdmin",
      "outputs": [
        {
          "internalType": "bytes32",
          "name": "",
          "type": "bytes32"
        }
      ],
      "stateMutability": "view",
      "type": "function"
    },
    {
      "inputs": [
        {
          "internalType": "bytes32",
          "name": "role",
          "type": "bytes32"
        },
        {
          "internalType": "address",
          "name": "account",
          "type": "address"
        }
      ],
      "name": "grantRole",
      "outputs": [],
      "stateMutability": "nonpayable",
      "type": "function"
    },
    {
      "inputs": [
        {
          "internalType": "bytes32",
          "name": "role",
          "type": "bytes32"
        },
        {
          "internalType": "address",
          "name": "account",
          "type": "address"
        }
      ],
      "name": "hasRole",
      "outputs": [
        {
          "internalType": "bool",
          "name": "",
          "type": "bool"
        }
      ],
      "stateMutability": "view",
      "type": "function"
    },
    {
      "inputs": [
        {
          "internalType": "address",
          "name": "account",
          "type": "address"
        },
        {
          "internalType": "uint256",
          "name": "amount",
          "type": "uint256"
        }
      ],
      "name": "mint",
      "outputs": [
        {
          "internalType": "bool",
          "name": "",
          "type": "bool"
        }
      ],
      "stateMutability": "nonpayable",
      "type": "function"
    },
    {
      "inputs": [],
      "name": "name",
      "outputs": [
        {
          "internalType": "string",
          "name": "",
          "type": "string"
        }
      ],
      "stateMutability": "view",
      "type": "function"
    },
    {
      "inputs": [
        {
          "internalType": "address",
          "name": "owner",
          "type": "address"
        }
      ],
      "name": "nonces",
      "outputs": [
        {
          "internalType": "uint256",
          "name": "",
          "type": "uint256"
        }
      ],
      "stateMutability": "view",
      "type": "function"
    },
    {
      "inputs": [
        {
          "internalType": "address",
          "name": "owner",
          "type": "address"
        },
        {
          "internalType": "address",
          "name": "spender",
          "type": "address"
        },
        {
          "internalType": "uint256",
          "name": "value",
          "type": "uint256"
        },
        {
          "internalType": "uint256",
          "name": "deadline",
          "type": "uint256"
        },
        {
          "internalType": "uint8",
          "name": "v",
          "type": "uint8"
        },
        {
          "internalType": "bytes32",
          "name": "r",
          "type": "bytes32"
        },
        {
          "internalType": "bytes32",
          "name": "s",
          "type": "bytes32"
        }
      ],
      "name": "permit",
      "outputs": [],
      "stateMutability": "nonpayable",
      "type": "function"
    },
    {
      "inputs": [
        {
          "internalType": "bytes32",
          "name": "role",
          "type": "bytes32"
        },
        {
          "internalType": "address",
          "name": "callerConfirmation",
          "type": "address"
        }
      ],
      "name": "renounceRole",
      "outputs": [],
      "stateMutability": "nonpayable",
      "type": "function"
    },
    {
      "inputs": [
        {
          "internalType": "bytes32",
          "name": "role",
          "type": "bytes32"
        },
        {
          "internalType": "address",
          "name": "account",
          "type": "address"
        }
      ],
      "name": "revokeRole",
      "outputs": [],
      "stateMutability": "nonpayable",
      "type": "function"
    },
    {
      "inputs": [
        {
          "internalType": "address",
          "name": "account",
          "type": "address"
        }
      ],
      "name": "setMinterRole",
      "outputs": [],
      "stateMutability": "nonpayable",
      "type": "function"
    },
    {
      "inputs": [
        {
          "internalType": "bytes4",
          "name": "interfaceId",
          "type": "bytes4"
        }
      ],
      "name": "supportsInterface",
      "outputs": [
        {
          "internalType": "bool",
          "name": "",
          "type": "bool"
        }
      ],
      "stateMutability": "view",
      "type": "function"
    },
    {
      "inputs": [],
      "name": "symbol",
      "outputs": [
        {
          "internalType": "string",
          "name": "",
          "type": "string"
        }
      ],
      "stateMutability": "view",
      "type": "function"
    },
    {
      "inputs": [],
      "name": "totalSupply",
      "outputs": [
        {
          "internalType": "uint256",
          "name": "",
          "type": "uint256"
        }
      ],
      "stateMutability": "view",
      "type": "function"
    },
    {
      "inputs": [
        {
          "internalType": "address",
          "name": "to",
          "type": "address"
        },
        {
          "internalType": "uint256",
          "name": "value",
          "type": "uint256"
        }
      ],
      "name": "transfer",
      "outputs": [
        {
          "internalType": "bool",
          "name": "",
          "type": "bool"
        }
      ],
      "stateMutability": "nonpayable",
      "type": "function"
    },
    {
      "inputs": [
        {
          "internalType": "address",
          "name": "from",
          "type": "address"
        },
        {
          "internalType": "address",
          "name": "to",
          "type": "address"
        },
        {
          "internalType": "uint256",
          "name": "value",
          "type": "uint256"
        }
      ],
      "name": "transferFrom",
      "outputs": [
        {
          "internalType": "bool",
          "name": "",
          "type": "bool"
        }
      ],
      "stateMutability": "nonpayable",
      "type": "function"
    },
    {
      "inputs": [],
      "name": "withdraw",
      "outputs": [],
      "stateMutability": "nonpayable",
      "type": "function"
    },
    {
      "inputs": [
        {
          "internalType": "address",
          "name": "tokenAddress",
          "type": "address"
        },
        {
          "internalType": "address",
          "name": "account",
          "type": "address"
        }
      ],
      "name": "withdrawToken",
      "outputs": [],
      "stateMutability": "nonpayable",
      "type": "function"
    }
  ],
  "bytecode": {
    "object": "0x6101606040523480156200001257600080fd5b5060405162001b8f38038062001b8f833981016040819052620000359162000341565b6040805180820190915260018152603160f81b602082015281908190848260046200006183826200043a565b5060056200007082826200043a565b50620000829150839050600662000141565b610120526200009381600762000141565b61014052815160208084019190912060e052815190820120610100524660a0526200012160e05161010051604080517f8b73c3c69bb8fe3d512ecc4cf759cc79239f7b179b0ffacaa9a75d522b39400f60208201529081019290925260608201524660808201523060a082015260009060c00160405160208183030381529060405280519060200120905090565b60805250503060c05250620001386000336200017a565b50505062000560565b60006020835110156200016157620001598362000228565b905062000174565b816200016e84826200043a565b5060ff90505b92915050565b6000828152602081815260408083206001600160a01b038516845290915281205460ff166200021f576000838152602081815260408083206001600160a01b03861684529091529020805460ff19166001179055620001d63390565b6001600160a01b0316826001600160a01b0316847f2f8788117e7eff1d82e926ec794901d17c78024a50270940304540a733656f0d60405160405180910390a450600162000174565b50600062000174565b600080829050601f815111156200025f578260405163305a27a960e01b815260040162000256919062000506565b60405180910390fd5b80516200026c826200053b565b179392505050565b634e487b7160e01b600052604160045260246000fd5b60005b83811015620002a75781810151838201526020016200028d565b50506000910152565b600082601f830112620002c257600080fd5b81516001600160401b0380821115620002df57620002df62000274565b604051601f8301601f19908116603f011681019082821181831017156200030a576200030a62000274565b816040528381528660208588010111156200032457600080fd5b620003378460208301602089016200028a565b9695505050505050565b600080604083850312156200035557600080fd5b82516001600160401b03808211156200036d57600080fd5b6200037b86838701620002b0565b935060208501519150808211156200039257600080fd5b50620003a185828601620002b0565b9150509250929050565b600181811c90821680620003c057607f821691505b602082108103620003e157634e487b7160e01b600052602260045260246000fd5b50919050565b601f8211156200043557600081815260208120601f850160051c81016020861015620004105750805b601f850160051c820191505b8181101562000431578281556001016200041c565b5050505b505050565b81516001600160401b0381111562000456576200045662000274565b6200046e81620004678454620003ab565b84620003e7565b602080601f831160018114620004a657600084156200048d5750858301515b600019600386901b1c1916600185901b17855562000431565b600085815260208120601f198616915b82811015620004d757888601518255948401946001909101908401620004b6565b5085821015620004f65787850151600019600388901b60f8161c191681555b5050505050600190811b01905550565b6020815260008251806020840152620005278160408501602087016200028a565b601f01601f19169190910160400192915050565b80516020808301519190811015620003e15760001960209190910360031b1b16919050565b60805160a05160c05160e0516101005161012051610140516115d4620005bb6000396000610cca01526000610c9d01526000610ba001526000610b7801526000610ad301526000610afd01526000610b2701526115d46000f3fe608060405234801561001057600080fd5b50600436106101735760003560e01c806340c10f19116100de57806395d89b4111610097578063a9059cbb11610071578063a9059cbb1461031d578063d505accf14610330578063d547741f14610343578063dd62ed3e1461035657600080fd5b806395d89b41146102fa5780639dc29fac14610302578063a217fddf1461031557600080fd5b806340c10f191461026a57806370a082311461027d5780637ecebe00146102a657806384b0196e146102b957806391d14854146102d4578063945d1229146102e757600080fd5b80632f2ff15d116101305780632f2ff15d14610210578063313ce567146102255780633644e5151461023457806336568abe1461023c5780633aeac4e11461024f5780633ccfd60b1461026257600080fd5b806301ffc9a71461017857806306fdde03146101a0578063095ea7b3146101b557806318160ddd146101c857806323b872dd146101da578063248a9ca3146101ed575b600080fd5b61018b610186366004611253565b61038f565b60405190151581526020015b60405180910390f35b6101a86103c6565b60405161019791906112ca565b61018b6101c33660046112f9565b610458565b6003545b604051908152602001610197565b61018b6101e8366004611323565b610470565b6101cc6101fb36600461135f565b60009081526020819052604090206001015490565b61022361021e366004611378565b610494565b005b60405160128152602001610197565b6101cc6104bf565b61022361024a366004611378565b6104ce565b61022361025d3660046113a4565b610506565b6102236105fd565b61018b6102783660046112f9565b610699565b6101cc61028b3660046113ce565b6001600160a01b031660009081526001602052604090205490565b6101cc6102b43660046113ce565b6106cf565b6102c16106ed565b60405161019797969594939291906113e9565b61018b6102e2366004611378565b610733565b6102236102f53660046113ce565b61075c565b6101a8610791565b61018b6103103660046112f9565b6107a0565b6101cc600081565b61018b61032b3660046112f9565b6107d6565b61022361033e36600461147f565b6107e4565b610223610351366004611378565b61091e565b6101cc6103643660046113a4565b6001600160a01b03918216600090815260026020908152604080832093909416825291909152205490565b60006001600160e01b03198216637965db0b60e01b14806103c057506301ffc9a760e01b6001600160e01b03198316145b92915050565b6060600480546103d5906114f2565b80601f0160208091040260200160405190810160405280929190818152602001828054610401906114f2565b801561044e5780601f106104235761010080835404028352916020019161044e565b820191906000526020600020905b81548152906001019060200180831161043157829003601f168201915b5050505050905090565b600033610466818585610943565b5060019392505050565b60003361047e858285610950565b6104898585856109c8565b506001949350505050565b6000828152602081905260409020600101546104af81610a27565b6104b98383610a34565b50505050565b60006104c9610ac6565b905090565b6001600160a01b03811633146104f75760405163334bd91960e11b815260040160405180910390fd5b6105018282610bf1565b505050565b600061051181610a27565b6040516370a0823160e01b815230600482015283906000906001600160a01b038316906370a0823190602401602060405180830381865afa15801561055a573d6000803e3d6000fd5b505050506040513d601f19601f8201168201806040525081019061057e919061152c565b60405163a9059cbb60e01b81526001600160a01b038681166004830152602482018390529192509083169063a9059cbb906044016020604051808303816000875af11580156105d1573d6000803e3d6000fd5b505050506040513d601f19601f820116820180604052508101906105f59190611545565b505050505050565b600061060881610a27565b6040514790600090339083908381818185875af1925050503d806000811461064c576040519150601f19603f3d011682016040523d82523d6000602084013e610651565b606091505b50509050806105015760405162461bcd60e51b815260206004820152600f60248201526e1dda5d1a191c985dc819985a5b1959608a1b60448201526064015b60405180910390fd5b60007fcfd53186d792f1ec9d0679afc2dc3ffc86fc31fe1e0f342b838eb6c3eade62b36106c581610a27565b6104668484610c5c565b6001600160a01b0381166000908152600860205260408120546103c0565b600060608060008060006060610701610c96565b610709610cc3565b60408051600080825260208201909252600f60f81b9b939a50919850469750309650945092509050565b6000918252602082815260408084206001600160a01b0393909316845291905290205460ff1690565b600061076781610a27565b6105017fcfd53186d792f1ec9d0679afc2dc3ffc86fc31fe1e0f342b838eb6c3eade62b383610a34565b6060600580546103d5906114f2565b60007fcfd53186d792f1ec9d0679afc2dc3ffc86fc31fe1e0f342b838eb6c3eade62b36107cc81610a27565b6104668484610cf0565b6000336104668185856109c8565b834211156108085760405163313c898160e11b815260048101859052602401610690565b60007f6e71edae12b1b97f4d1f60370fef10105fa2faae0126114a169c64845d6126c98888886108558c6001600160a01b0316600090815260086020526040902080546001810190915590565b6040805160208101969096526001600160a01b0394851690860152929091166060840152608083015260a082015260c0810186905260e00160405160208183030381529060405280519060200120905060006108b082610d26565b905060006108c082878787610d53565b9050896001600160a01b0316816001600160a01b031614610907576040516325c0072360e11b81526001600160a01b0380831660048301528b166024820152604401610690565b6109128a8a8a610943565b50505050505050505050565b60008281526020819052604090206001015461093981610a27565b6104b98383610bf1565b6105018383836001610d81565b6001600160a01b0383811660009081526002602090815260408083209386168352929052205460001981146104b957818110156109b957604051637dc7a0d960e11b81526001600160a01b03841660048201526024810182905260448101839052606401610690565b6104b984848484036000610d81565b6001600160a01b0383166109f257604051634b637e8f60e11b815260006004820152602401610690565b6001600160a01b038216610a1c5760405163ec442f0560e01b815260006004820152602401610690565b610501838383610e56565b610a318133610f80565b50565b6000610a408383610733565b610abe576000838152602081815260408083206001600160a01b03861684529091529020805460ff19166001179055610a763390565b6001600160a01b0316826001600160a01b0316847f2f8788117e7eff1d82e926ec794901d17c78024a50270940304540a733656f0d60405160405180910390a45060016103c0565b5060006103c0565b6000306001600160a01b037f000000000000000000000000000000000000000000000000000000000000000016148015610b1f57507f000000000000000000000000000000000000000000000000000000000000000046145b15610b4957507f000000000000000000000000000000000000000000000000000000000000000090565b6104c9604080517f8b73c3c69bb8fe3d512ecc4cf759cc79239f7b179b0ffacaa9a75d522b39400f60208201527f0000000000000000000000000000000000000000000000000000000000000000918101919091527f000000000000000000000000000000000000000000000000000000000000000060608201524660808201523060a082015260009060c00160405160208183030381529060405280519060200120905090565b6000610bfd8383610733565b15610abe576000838152602081815260408083206001600160a01b0386168085529252808320805460ff1916905551339286917ff6391f5c32d9c69d2a47ea670b442974b53935d1edc7fd64eb21e047a839171b9190a45060016103c0565b6001600160a01b038216610c865760405163ec442f0560e01b815260006004820152602401610690565b610c9260008383610e56565b5050565b60606104c97f00000000000000000000000000000000000000000000000000000000000000006006610fb9565b60606104c97f00000000000000000000000000000000000000000000000000000000000000006007610fb9565b6001600160a01b038216610d1a57604051634b637e8f60e11b815260006004820152602401610690565b610c9282600083610e56565b60006103c0610d33610ac6565b8360405161190160f01b8152600281019290925260228201526042902090565b600080600080610d6588888888611064565b925092509250610d758282611133565b50909695505050505050565b6001600160a01b038416610dab5760405163e602df0560e01b815260006004820152602401610690565b6001600160a01b038316610dd557604051634a1406b160e11b815260006004820152602401610690565b6001600160a01b03808516600090815260026020908152604080832093871683529290522082905580156104b957826001600160a01b0316846001600160a01b03167f8c5be1e5ebec7d5bd14f71427d1e84f3dd0314c0f7b2291e5b200ac8c7c3b92584604051610e4891815260200190565b60405180910390a350505050565b6001600160a01b038316610e81578060036000828254610e769190611567565b90915550610ef39050565b6001600160a01b03831660009081526001602052604090205481811015610ed45760405163391434e360e21b81526001600160a01b03851660048201526024810182905260448101839052606401610690565b6001600160a01b03841660009081526001602052604090209082900390555b6001600160a01b038216610f0f57600380548290039055610f2e565b6001600160a01b03821660009081526001602052604090208054820190555b816001600160a01b0316836001600160a01b03167fddf252ad1be2c89b69c2b068fc378daa952ba7f163c4a11628f55a4df523b3ef83604051610f7391815260200190565b60405180910390a3505050565b610f8a8282610733565b610c925760405163e2517d3f60e01b81526001600160a01b038216600482015260248101839052604401610690565b606060ff8314610fd357610fcc836111ec565b90506103c0565b818054610fdf906114f2565b80601f016020809104026020016040519081016040528092919081815260200182805461100b906114f2565b80156110585780601f1061102d57610100808354040283529160200191611058565b820191906000526020600020905b81548152906001019060200180831161103b57829003601f168201915b505050505090506103c0565b600080807f7fffffffffffffffffffffffffffffff5d576e7357a4501ddfe92f46681b20a084111561109f5750600091506003905082611129565b604080516000808252602082018084528a905260ff891692820192909252606081018790526080810186905260019060a0016020604051602081039080840390855afa1580156110f3573d6000803e3d6000fd5b5050604051601f1901519150506001600160a01b03811661111f57506000925060019150829050611129565b9250600091508190505b9450945094915050565b600082600381111561114757611147611588565b03611150575050565b600182600381111561116457611164611588565b036111825760405163f645eedf60e01b815260040160405180910390fd5b600282600381111561119657611196611588565b036111b75760405163fce698f760e01b815260048101829052602401610690565b60038260038111156111cb576111cb611588565b03610c92576040516335e2f38360e21b815260048101829052602401610690565b606060006111f98361122b565b604080516020808252818301909252919250600091906020820181803683375050509182525060208101929092525090565b600060ff8216601f8111156103c057604051632cd44ac360e21b815260040160405180910390fd5b60006020828403121561126557600080fd5b81356001600160e01b03198116811461127d57600080fd5b9392505050565b6000815180845260005b818110156112aa5760208185018101518683018201520161128e565b506000602082860101526020601f19601f83011685010191505092915050565b60208152600061127d6020830184611284565b80356001600160a01b03811681146112f457600080fd5b919050565b6000806040838503121561130c57600080fd5b611315836112dd565b946020939093013593505050565b60008060006060848603121561133857600080fd5b611341846112dd565b925061134f602085016112dd565b9150604084013590509250925092565b60006020828403121561137157600080fd5b5035919050565b6000806040838503121561138b57600080fd5b8235915061139b602084016112dd565b90509250929050565b600080604083850312156113b757600080fd5b6113c0836112dd565b915061139b602084016112dd565b6000602082840312156113e057600080fd5b61127d826112dd565b60ff60f81b881681526000602060e08184015261140960e084018a611284565b838103604085015261141b818a611284565b606085018990526001600160a01b038816608086015260a0850187905284810360c0860152855180825283870192509083019060005b8181101561146d57835183529284019291840191600101611451565b50909c9b505050505050505050505050565b600080600080600080600060e0888a03121561149a57600080fd5b6114a3886112dd565b96506114b1602089016112dd565b95506040880135945060608801359350608088013560ff811681146114d557600080fd5b9699959850939692959460a0840135945060c09093013592915050565b600181811c9082168061150657607f821691505b60208210810361152657634e487b7160e01b600052602260045260246000fd5b50919050565b60006020828403121561153e57600080fd5b5051919050565b60006020828403121561155757600080fd5b8151801515811461127d57600080fd5b808201808211156103c057634e487b7160e01b600052601160045260246000fd5b634e487b7160e01b600052602160045260246000fdfea264697066735822122057ddbf862ea032af4da91ffa11a6f0c7f9627317796d975dc7f452f4a0a0942a64736f6c63430008150033",
    "linkReferences": {}
  },
  "methodIdentifiers": {
    "DEFAULT_ADMIN_ROLE()": "a217fddf",
    "DOMAIN_SEPARATOR()": "3644e515",
    "allowance(address,address)": "dd62ed3e",
    "approve(address,uint256)": "095ea7b3",
    "balanceOf(address)": "70a08231",
    "burn(address,uint256)": "9dc29fac",
    "decimals()": "313ce567",
    "eip712Domain()": "84b0196e",
    "getRoleAdmin(bytes32)": "248a9ca3",
    "grantRole(bytes32,address)": "2f2ff15d",
    "hasRole(bytes32,address)": "91d14854",
    "mint(address,uint256)": "40c10f19",
    "name()": "06fdde03",
    "nonces(address)": "7ecebe00",
    "permit(address,address,uint256,uint256,uint8,bytes32,bytes32)": "d505accf",
    "renounceRole(bytes32,address)": "36568abe",
    "revokeRole(bytes32,address)": "d547741f",
    "setMinterRole(address)": "945d1229",
    "supportsInterface(bytes4)": "01ffc9a7",
    "symbol()": "95d89b41",
    "totalSupply()": "18160ddd",
    "transfer(address,uint256)": "a9059cbb",
    "transferFrom(address,address,uint256)": "23b872dd",
    "withdraw()": "3ccfd60b",
    "withdrawToken(address,address)": "3aeac4e1"
  },
  "id": 41
}